:100000000C9446000C94BE0B0C9465000C94650097
:100010000C9465000C9465000C9465000C946500CC
:100020000C9465000C949E0C0C94D70C0C94EE0967
:100030000C94100D0C94490D0C94BB0D0C942C0CCD
:100040000C94650C0C9465000C9465000C94650090
:100050000C9465000C9465000C9465000C9465008C
:100060000C94820D0C94270A0C94F40D0C942D0E14
:100070000C94660E0C949F0E0C9465000C94650015
:100080000C9465000C9465000C94650011241FBE4F
:10009000CFEFD0E1DEBFCDBF12E0A0E0B1E0EEEAED
:1000A000F3E300E00BBF02C007900D92A63AB10740
:1000B000D9F712E0A6EAB2E001C01D92AA3CB1074E
:1000C000E1F70E9482090C94D5190C940000EF927C
:1000D000FF920F931F937B018C0120E030E040E002
:1000E0005FE40E94E30388238CF0C801B70120E09D
:1000F00030E040E05FE40E94DF010E9471049B0158
:10010000AC01205030404040504806C0C801B70103
:100110000E9471049B01AC01B901CA011F910F91AA
:10012000FF90EF900895A0E0B0E0E9E9F0E00C94D2
:10013000C716DC012B01FA019C91923008F439C1F9
:10014000EB018881823008F433C1943069F4843043
:1001500009F02FC111969C9111978981981709F484
:1001600028C1A6E9B1E025C1843009F421C182305B
:10017000A9F4923009F01DC19A01AD0188E0EA01AD
:100180000990AE01E90109929E018150C1F7E20197
:10019000898111969C918923818308C1923009F449
:1001A00007C112962D903C901397EB018A819B8199
:1001B0001496AD90BD90CD90DC901797EC80FD80AB
:1001C0000E811F819101281B390BB90137FF04C033
:1001D00066277727621B730B603271050CF061C0D4
:1001E000121613066CF537014801062E04C09694CA
:1001F0008794779467940A94D2F721E030E040E046
:1002000050E004C0220F331F441F551F6A95D2F7D8
:1002100021503040404050402E213F214023512367
:10022000211531054105510521F021E030E040E084
:1002300050E079018A01E628F728082919293CC0ED
:10024000232BD1F1260E371E35014601062E04C0A0
:1002500096948794779467940A94D2F721E030E0DB
:1002600040E050E004C0220F331F441F551F6A9521
:10027000D2F721503040404050402A213B214C21B0
:100280005D21211531054105510521F021E030E0C6
:1002900040E050E059016A01A628B728C828D928AB
:1002A0000BC0821593052CF01C01AA24BB24650108
:1002B00003C0EE24FF24870111969C91D201119670
:1002C0008C91981709F445C0992339F0A80197013A
:1002D0002A193B094C095D0906C0A60195012E1992
:1002E0003F09400B510B57FD08C011823382228217
:1002F00024833583468357831DC081E08183338205
:10030000228288279927DC01821B930BA40BB50B53
:1003100084839583A683B7830DC0220F331F441FA8
:10032000551F2483358346835783828193810197A8
:10033000938382832481358146815781DA01C90103
:100340000197A109B1098F5F9F4FAF4FBF4328F3BA
:100350000BC0918333822282EA0CFB1C0C1D1D1DF5
:10036000E482F5820683178383E0808324813581CC
:100370004681578157FF1AC0C901AA2797FDA0954A
:10038000BA2F81709070A070B070569547953795D0
:100390002795822B932BA42BB52B84839583A6833F
:1003A000B78382819381019693838283DF0101C0A9
:1003B000D201CD01CDB7DEB7E2E10C94E316A0E2A5
:1003C000B0E0E5EEF1E00C94D31669837A838B8379
:1003D0009C832D833E834F835887E9E0EE2EF12CDA
:1003E000EC0EFD1ECE010196B7010E9462068E0141
:1003F0000F5E1F4FCE010596B8010E9462068A89E2
:1004000091E089278A8BC701B801AE01475E5F4F33
:100410000E9493000E948D05A096E6E00C94EF16D2
:10042000A0E2B0E0E6E1F2E00C94D31669837A83AF
:100430008B839C832D833E834F835887F9E0EF2E77
:10044000F12CEC0EFD1ECE010196B7010E94620652
:100450008E010F5E1F4FCE010596B8010E94620605
:10046000C701B801AE01475E5F4F0E9493000E9432
:100470008D05A096E6E00C94EF16A0E2B0E0E3E470
:10048000F2E00C94C71669837A838B839C832D8357
:100490003E834F835887CE010196BE01675F7F4F31
:1004A0000E946206CE010596BE016F5E7F4F0E94DC
:1004B00062069985923088F089898230C8F094303C
:1004C00019F4823051F404C0843029F4923081F45C
:1004D00086E991E0C6C0923049F420E09A858A8985
:1004E000981321E02A87CE010996BBC0823049F4D7
:1004F00020E09A858A89981321E02A8BCE014196C3
:10050000B0C02D843E844F8458886D887E888F8843
:10051000988CEE24FF248701AA24BB24650140E0C7
:1005200050E060E070E0E0E0F0E0C10181709070C8
:10053000892BE9F0E60CF71C081D191D9A01AB0187
:100540002A0D3B1D4C1D5D1D80E090E0A0E0B0E059
:10055000E614F7040805190520F481E090E0A0E016
:10056000B0E0BA01A901480F591F6A1F7B1FAA0CEE
:10057000BB1CCC1CDD1C97FE08C081E090E0A0E015
:10058000B0E0A82AB92ACA2ADB2A3196E032F1055E
:1005900049F0660C771C881C991C56944794379434
:1005A0002794C3CFFA85EA892B893C898B859C8562
:1005B000280F391F2E5F3F4F17C0CA0181709070FE
:1005C000892B61F016950795F794E79480E090E009
:1005D000A0E0B0E8E82AF92A0A2B1B2B769567954C
:1005E000579547952F5F3F4F77FDE7CF0CC0440FDE
:1005F000551F661F771F17FD4160EE0CFF1C001F83
:10060000111F21503040403090E0590790E06907B9
:1006100090E4790760F32B8F3C8FDB01CA018F7761
:100620009070A070B07080349105A105B10561F49F
:1006300047FD0AC0E114F1040105110529F0405CF1
:100640005F4F6F4F7F4F40781A8EFE1711F081E099
:100650008A8F4D8F5E8F6F8F78A383E0898FCE0155
:1006600049960E948D05A096E2E10C94E316A8E15C
:10067000B0E0EDE3F3E00C94CF1669837A838B83CB
:100680009C832D833E834F835887B9E0EB2EF12C5A
:10069000EC0EFD1ECE010196B7010E9462068E018E
:1006A0000F5E1F4FCE010596B8010E946206298594
:1006B000223008F47EC03989323010F4B8017CC091
:1006C0008A859A8989278A87243011F0223031F46B
:1006D000231709F06EC066E971E06EC0343039F45A
:1006E0001D861E861F86188A1C861B8604C0323013
:1006F00021F484E08987B7015FC02B853C858B8915
:100700009C89281B390B3C872B87ED84FE840F8541
:100710001889AD88BE88CF88D88CEA14FB040C05F4
:100720001D0540F4EE0CFF1C001F111F215030402E
:100730003C872B8720E030E040E050E080E090E014
:10074000A0E0B0E460E070E0EA14FB040C051D05D5
:1007500040F0282B392B4A2B5B2BEA18FB080C099D
:100760001D09B695A79597958795EE0CFF1C001F60
:10077000111F6F5F7F4F6F31710531F7DA01C901CA
:100780008F779070A070B07080349105A105B1058D
:1007900061F427FD0AC0E114F1040105110529F0F7
:1007A000205C3F4F4F4F5F4F20782D873E874F870C
:1007B000588BBE01675F7F4FCB010E948D05689605
:1007C000EAE00C94EB16A8E1B0E0E9EEF3E00C945B
:1007D000D31669837A838B839C832D833E834F83D7
:1007E000588789E0E82EF12CEC0EFD1ECE01019613
:1007F000B7010E9462068E010F5E1F4FCE01059663
:10080000B8010E9462068985823040F08989823071
:1008100028F0C701B8010E94DA0601C08FEF689680
:10082000E6E00C94EF16A8E0B0E0E9E1F4E00C9407
:10083000D0169B01AC0183E08983DA01C9018827C6
:10084000B7FD83959927AA27BB27B82E2115310517
:100850004105510519F482E089833AC08823A9F043
:10086000203080E0380780E0480780E8580729F406
:1008700060E070E080E09FEC30C0EE24FF24870150
:10088000E21AF30A040B150B02C079018A018EE10A
:10089000C82ED12CDC82CB82ED82FE820F8318879A
:1008A000C801B7010E943E0501971816190684F485
:1008B000082E04C0EE0CFF1C001F111F0A94D2F773
:1008C000ED82FE820F831887C81AD90ADC82CB8298
:1008D000BA82CE0101960E948D052896E9E00C941B
:1008E000EC16ACE0B0E0E7E7F4E00C94D7166983CF
:1008F0007A838B839C83CE010196BE016B5F7F4F11
:100900000E9462068D81823061F1823050F1843024
:1009100021F48E81882351F12EC02F81388537FD37
:1009200020C06E812F3131051CF06623F9F023C001
:100930008EE190E0821B930B29853A854B855C857F
:1009400004C056954795379527958A95D2F7662323
:10095000B1F050954095309521953F4F4F4F5F4FE7
:100960000EC020E030E040E050E009C02FEF3FEF44
:100970004FEF5FE704C020E030E040E050E8B9010D
:10098000CA012C96E2E00C94F316A8E0B0E0EBEC80
:10099000F4E00C94CF167B018C0161157105810583
:1009A000910519F482E0898360C083E089838EE138
:1009B000C82ED12CDC82CB82ED82FE820F83188779
:1009C000C801B7010E943E05FC013197F7FF3BC00B
:1009D000222733272E1B3F0B57016801022E04C02C
:1009E000D694C794B794A7940A94D2F740E050E005
:1009F00060E070E081E090E0A0E0B0E004C0880F2B
:100A0000991FAA1FBB1F2A95D2F70197A109B10907
:100A10008E219F21A023B1230097A105B10521F0CC
:100A200041E050E060E070E04A295B296C297D29B3
:100A30004D835E836F8378878EE190E08E1B9F0BE2
:100A40009C838B8312C0309781F00E2E04C0EE0C75
:100A5000FF1C001F111F0A94D2F7ED82FE820F8344
:100A60001887CE1ADF0ADC82CB821A82CE01019669
:100A70000E948D052896EAE00C94EB16EF92FF9207
:100A80000F931F937B018C0180E0E81680E0F8064D
:100A900081E0080780E0180788F48FEFE816F1047A
:100AA0000105110531F028F088E090E0A0E0B0E009
:100AB00017C080E090E0A0E0B0E012C080E0E8164F
:100AC00080E0F80680E0080781E0180728F088E158
:100AD00090E0A0E0B0E004C080E190E0A0E0B0E0F1
:100AE00020E230E040E050E0281B390B4A0B5B0B62
:100AF00004C016950795F794E7948A95D2F7F70105
:100B0000E256FE4F8081281B310941095109C90174
:100B10001F910F91FF90EF900895DF92EF92FF9257
:100B20000F931F93FC01E480F58006811781D1802B
:100B30008081823048F480E090E0A0E1B0E0E82AD3
:100B4000F92A0A2B1B2BA5C0843009F49FC08230E0
:100B500021F4EE24FF24870105C0E114F10401050E
:100B6000110519F4E0E0F0E096C0628173819FEF17
:100B7000623879070CF05BC022E83FEF261B370B89
:100B80002A3131052CF020E030E040E050E02AC06E
:100B9000B801A701022E04C0769567955795479531
:100BA0000A94D2F781E090E0A0E0B0E004C0880FA2
:100BB000991FAA1FBB1F2A95D2F70197A109B10956
:100BC0008E219F21A023B1230097A105B10521F01B
:100BD00081E090E0A0E0B0E09A01AB01282B392B36
:100BE0004A2B5B2BDA01C9018F779070A070B0702F
:100BF00080349105A105B10539F427FF09C0205CB7
:100C00003F4F4F4F5F4F04C0215C3F4F4F4F5F4FEF
:100C1000E0E0F0E02030A0E03A07A0E04A07A0E4DE
:100C20005A0710F0E1E0F0E079018A0127C060384E
:100C3000710564F5FB01E158FF4FD801C7018F77BB
:100C40009070A070B07080349105A105B10539F4A1
:100C5000E7FE0DC080E490E0A0E0B0E004C08FE3C8
:100C600090E0A0E0B0E0E80EF91E0A1F1B1F17FF7E
:100C700005C016950795F794E794319687E0169589
:100C80000795F794E7948A95D1F705C0EE24FF24E1
:100C90008701EFEFF0E06E2F679566276795902F3D
:100CA0009F77D794DD24D7948E2F8695492F462B96
:100CB000582F5D29B701CA011F910F91FF90EF9046
:100CC000DF900895FC01DB01408151812281622F78
:100CD0006F7770E0221F2227221F9381892F880FB0
:100CE000822B282F30E0991F9927991F11969C93EA
:100CF000119721153105A9F54115510561057105BA
:100D000011F482E037C082E89FEF13969C938E9394
:100D100012979A01AB0167E0220F331F441F551F42
:100D20006A95D1F783E08C930DC0220F331F441FC7
:100D3000551F12968D919C911397019713969C9332
:100D40008E931297203080E0380780E0480780E4D7
:100D5000580758F314962D933D934D935C93179732
:100D600008952F3F310579F441155105610571054D
:100D700019F484E08C93089564FF03C081E08C93A0
:100D800012C01C9210C02F57304013963C932E93E4
:100D9000129783E08C9387E0440F551F661F771FDF
:100DA0008A95D1F7706414964D935D936D937C93FF
:100DB000179708951F93DC01FB019C91923008F472
:100DC00047C08081823008F443C0943051F41196BA
:100DD0001C91843099F58181682F70E0611B710945
:100DE0003FC0843021F0923031F48230B9F18181FA
:100DF000882389F12DC011961C9111978230F1F052
:100E000081811817D9F412962D913C911397828104
:100E100093818217930794F028173907BCF0149632
:100E20008D919D910D90BC91A02D2481358146819D
:100E30005781281739074A075B0718F4112341F037
:100E40000AC082179307A407B50740F4112319F0CD
:100E500061E070E005C06FEF7FEF02C060E070E01E
:100E6000CB011F910895DF93CF9300D0CDB7DEB7AC
:100E70008091AE028F5F8093AE028091AE02282FE8
:100E800030E03A83298389819A8182309105E1F0AB
:100E900029813A812330310534F489819A81813066
:100EA000910561F030C029813A8123303105C1F0CC
:100EB00089819A8184309105F9F025C080E00E94F3
:100EC000BB0A0E94E50A1FC00E94DA0A9093A90299
:100ED0008093A80281E00E94BB0A0E94E50A13C029
:100EE0000E94DA0A9093AB028093AA0280E00E94EB
:100EF000BB0A0E94E50A07C081E00E94BB0A0E946B
:100F0000E50A1092AE020F900F90CF91DF910895F5
:100F1000DF93CF9300D0CDB7DEB78091B0028F5F63
:100F20008093B0028091B002282F30E03A83298369
:100F300089819A8182309105E1F029813A812330BB
:100F4000310534F489819A818130910561F02CC09A
:100F500029813A8123303105A1F089819A81843039
:100F60009105B9F021C00E94940B80E00E946A0BA9
:100F70001BC00E94890B8093B10281E00E946A0B22
:100F800013C00E94890B8093B30280E00E946A0B19
:100F90000BC00E94890B8093B2020E94940B81E0E7
:100FA0000E946A0B1092B0020F900F90CF91DF91C8
:100FB0000895DF93CF93CDB7DEB728970FB6F89497
:100FC000DEBF0FBECDBFE4E4F0E080818093A702D6
:100FD0008091B202282F30E08091B102882F90E0FA
:100FE000A901481B590BCA01AA2797FDA095BA2F42
:100FF000BC01CD010E941304DC01CB018093B4023B
:101000009093B502A093B602B093B7028091B40258
:101010009091B502A091B602B091B702BC01CD018A
:101020000E946700DC01CB01282F30E000D000D007
:1010300000D0EDB7FEB73196CE0101969183808343
:1010400080E091E093838283358324830E94FE169F
:101050008DB79EB706960FB6F8949EBF0FBE8DBF94
:1010600083E091E00E947015CE0101960E947015F8
:1010700081E291E00E9470158DE00E944A158091F6
:10108000A702282F30E000D000D000D0EDB7FEB787
:101090003196CE0105969183808380E091E0938321
:1010A0008283358324830E94FE164DB75EB74A5F64
:1010B0005F4F0FB6F8945EBF0FBE4DBF85E291E063
:1010C0000E947015CE0105960E9470158DE00E9459
:1010D0004A1528960FB6F894DEBF0FBECDBFCF914C
:1010E000DF910895DF93CF9300D000D000D0CDB72B
:1010F000DEB7E4E4F0E080818093A7028DE00E94F7
:101100004A150E94DE0881E391E00E9470158091EB
:10111000A702282F30E000D000D000D0EDB7FEB7F6
:101120003196CE0101969183808380E091E0938394
:101130008283358324830E94FE168DB79EB7069660
:101140000FB6F8949EBF0FBE8DBFCE0101960E94D0
:1011500070158DE00E944A1584E491E00E9470159C
:101160008091A602282F30E000D000D000D0EDB74B
:10117000FEB73196CE0104969183808380E091E0A2
:1011800093838283358324830E94FE168DB79EB796
:1011900006960FB6F8949EBF0FBE8DBFCE01049683
:1011A0000E9470158DE00E944A1526960FB6F8949D
:1011B000DEBF0FBECDBFCF91DF910895AF92BF923A
:1011C000CF92DF92EF92FF920F931F93DF93CF9313
:1011D00000D000D0CDB7DEB78091A8029091A902CF
:1011E000CC01A0E0B0E0BC01CD010E94C5045B01D0
:1011F0006C018091A8029091A902CC01A0E0B0E01E
:10120000BC01CD010E94C5047B018C018091AA0222
:101210009091AB02CC01A0E0B0E0BC01CD010E94F6
:10122000C5049B01AC01C801B7010E941002DC019A
:10123000CB019C01AD01C601B5010E943703DC0161
:10124000CB01BC01CD0120E030E048EC52E40E942B
:101250003D02DC01CB01BC01CD010E946700DC0135
:10126000CB018093AF028091AF02282F30E000D0F5
:1012700000D000D0EDB7FEB73196CE010196918334
:10128000808380E091E093838283358324830E946E
:10129000FE168DB79EB706960FB6F8949EBF0FBE8A
:1012A0008DBF89E591E00E947015CE0101960E94E4
:1012B00070158AE691E00E9470158DE00E944A1533
:1012C0000F900F900F900F90CF91DF911F910F9182
:1012D000FF90EF90DF90CF90BF90AF900895DF9395
:1012E000CF93CDB7DEB78091A6028F5F8093A60221
:1012F0008091A602833019F481E08093A602CF91F9
:10130000DF910895DF93CF93CDB7DEB76D970FB61A
:10131000F894DEBF0FBECDBF789481E0898381E071
:101320008A83CE0101960E940F0B0E94940B88E8DD
:1013300097E00E94580B81E08B8381E08C83CE0183
:1013400003960E94600A0E94E50A83E397E00E94E8
:10135000A90A8DE0FE013596DF01982F1D929A951E
:10136000E9F787E08D83CE0105960E94E10F8FE6B5
:1013700099E00E94A710DE015296BA8FA98FEEE97C
:10138000F2E0FC8FEB8FF7E0FD8FAB8DBC8D0C9006
:10139000EB8DFC8D3196FC8FEB8FA98DBA8D0C9265
:1013A000E98DFA8D3196FA8FE98FFD8DF150FD8F21
:1013B0008D8D882351F7CE0142960E94B5148DE69B
:1013C00091E00E9470150E94F70B82E798E00E945E
:1013D0001A0C0E94DE080E94D907FBCF1F920F92C1
:1013E0000FB60F9200905B000F9211242F933F9342
:1013F0004F935F936F937F938F939F93AF93BF931D
:10140000EF93FF93DF93CF93CDB7DEB78091B80210
:101410009091B902009729F0E091B802F091B902D9
:101420000995CF91DF91FF91EF91BF91AF919F917E
:101430008F917F916F915F914F913F912F910F907D
:1014400000925B000F900FBE0F901F9018951F9297
:101450000F920FB60F9200905B000F9211242F9302
:101460003F934F935F936F937F938F939F93AF932C
:10147000BF93EF93FF93DF93CF93CDB7DEB7809108
:10148000BA029091BB02009729F0E091BA02F09164
:10149000BB020995CF91DF91FF91EF91BF91AF9181
:1014A0009F918F917F916F915F914F913F912F917C
:1014B0000F9000925B000F900FBE0F901F90189539
:1014C000DF93CF9300D0CDB7DEB79A838983A2E2B2
:1014D000B0E0E2E2F0E080818F7E8C93EAE7F0E01A
:1014E00080EE8083AEE4B0E0EEE4F0E08081982FFF
:1014F000987FE981FA818081892B8C93AEE4B0E0FA
:10150000EEE4F0E08081282F2F7BE981FA81818150
:10151000882F90E000249695879507949695879557
:101520000794982F802D822B8C93ECE4F0E01182AD
:101530001082E6E4F0E011821082A7E5B0E0E7E572
:10154000F0E0808180628C930F900F90CF91DF91BB
:101550000895DF93CF9300D0CDB7DEB79A83898308
:1015600089819A819093B9028093B8020F900F906D
:10157000CF91DF910895DF93CF930F92CDB7DEB770
:101580008983AEE4B0E0EEE4F0E08081282F2F7B89
:101590008981882F90E000249695879507949695E9
:1015A00087950794982F802D822B8C930F90CF9145
:1015B000DF910895DF93CF93CDB7DEB7E6E4F0E097
:1015C00080819181CF91DF910895DF93CF93CDB743
:1015D000DEB7ECE4F0E011821082CF91DF91089544
:1015E000DF93CF93CDB7DEB7EFE4F0E01082EEE407
:1015F000F0E01082EAE7F0E01082ECE4F0E0118223
:101600001082E6E4F0E011821082ADE7B0E0EDE791
:10161000F0E080818F7D8C93CF91DF910895DF93EF
:10162000CF9300D0CDB7DEB79A838983A2E2B0E032
:10163000E2E2F0E080818F778C93ECE8F0E080EEDE
:101640008083AAE8B0E0EAE8F0E08081982F987FF4
:10165000E981FA818081892B8C93AAE8B0E0EAE8DD
:10166000F0E08081282F2F7BE981FA818181882F0A
:1016700090E0002496958795079496958795079412
:10168000982F802D822B8C93E8E8F0E01182108255
:10169000E0E8F0E011821082ADE7B0E0EDE7F0E0C5
:1016A000808180628C930F900F90CF91DF9108958D
:1016B000DF93CF9300D0CDB7DEB79A83898389813A
:1016C0009A819093BB028093BA020F900F90CF91B2
:1016D000DF910895DF93CF930F92CDB7DEB7898363
:1016E000AAE8B0E0EAE8F0E08081282F2F7B89812A
:1016F000882F90E000249695879507949695879576
:101700000794982F802D822B8C930F90CF91DF918F
:101710000895DF93CF93CDB7DEB7E0E8F0E08081A6
:101720009181CF91DF910895DF93CF93CDB7DEB74D
:10173000E8E8F0E011821082CF91DF910895DF9305
:10174000CF93CDB7DEB7EBE8F0E01082EAE8F0E047
:101750001082ECE8F0E01082E8E8F0E011821082FC
:10176000E0E8F0E011821082ADE7B0E0EDE7F0E0F4
:1017700080818F7D8C93CF91DF9108951F920F927E
:101780000FB60F9200905B000F9211242F933F939E
:101790004F935F936F937F938F939F93AF93BF9379
:1017A000EF93FF93DF93CF93CDB7DEB78091BC0269
:1017B0009091BD02009729F0E091BC02F091BD022A
:1017C0000995CF91DF91FF91EF91BF91AF919F91DB
:1017D0008F917F916F915F914F913F912F910F90DA
:1017E00000925B000F900FBE0F901F901895DF9333
:1017F000CF93CDB7DEB7AAE6B0E0EAE6F0E08081AD
:1018000081608C93AAE6B0E0EAE6F0E08081826035
:101810008C93A9E5B0E0E9E5F0E0808181608C93EC
:10182000A2E3B0E0E2E3F0E0808181608C93CF91AD
:10183000DF910895DF93CF9300D0CDB7DEB79A83C1
:10184000898389819A819093BD028093BC020F9015
:101850000F90CF91DF9108951F920F920FB60F92C4
:1018600000905B000F9211242F933F934F935F934F
:101870006F937F938F939F93AF93BF93EF93FF9358
:10188000DF93CF93CDB7DEB78091BE029091BF02B8
:10189000009729F0E091BE02F091BF020995CF9127
:1018A000DF91FF91EF91BF91AF919F918F917F91C8
:1018B0006F915F914F913F912F910F9000925B003C
:1018C0000F900FBE0F901F9018951F920F920FB69A
:1018D0000F9200905B000F9211242F933F934F9330
:1018E0005F936F937F938F939F93AF93BF93EF9388
:1018F000FF93DF93CF93CDB7DEB78091BE02909177
:10190000BF02009729F0E091BE02F091BF02099555
:10191000CF91DF91FF91EF91BF91AF919F918F9107
:101920007F916F915F914F913F912F910F90009216
:101930005B000F900FBE0F901F9018951F920F9293
:101940000FB60F9200905B000F9211242F933F93DC
:101950004F935F936F937F938F939F93AF93BF93B7
:10196000EF93FF93DF93CF93CDB7DEB78091C002A3
:101970009091C102009729F0E091C002F091C1025C
:101980000995CF91DF91FF91EF91BF91AF919F9119
:101990008F917F916F915F914F913F912F910F9018
:1019A00000925B000F900FBE0F901F9018951F9232
:1019B0000F920FB60F9200905B000F9211242F939D
:1019C0003F934F935F936F937F938F939F93AF93C7
:1019D000BF93EF93FF93DF93CF93CDB7DEB78091A3
:1019E000C0029091C102009729F0E091C002F091ED
:1019F000C1020995CF91DF91FF91EF91BF91AF9116
:101A00009F918F917F916F915F914F913F912F9116
:101A10000F9000925B000F900FBE0F901F901895D3
:101A20001F920F920FB60F9200905B000F9211243D
:101A30002F933F934F935F936F937F938F939F93D6
:101A4000AF93BF93EF93FF93DF93CF93CDB7DEB701
:101A50008091C2029091C302009729F0E091C202E6
:101A6000F091C3020995CF91DF91FF91EF91BF9162
:101A7000AF919F918F917F916F915F914F913F9126
:101A80002F910F9000925B000F900FBE0F901F9050
:101A900018951F920F920FB60F9200905B000F9255
:101AA00011242F933F934F935F936F937F938F9363
:101AB0009F93AF93BF93EF93FF93DF93CF93CDB7F4
:101AC000DEB78091C2029091C302009729F0E091A5
:101AD000C202F091C3020995CF91DF91FF91EF917E
:101AE000BF91AF919F918F917F916F915F914F9136
:101AF0003F912F910F9000925B000F900FBE0F90BF
:101B00001F9018951F920F920FB60F9200905B00D6
:101B10000F9211242F933F934F935F936F937F9373
:101B20008F939F93AF93BF93EF93FF93DF93CF93E5
:101B3000CDB7DEB78091C2029091C302009729F021
:101B4000E091C202F091C3020995CF91DF91FF911C
:101B5000EF91BF91AF919F918F917F916F915F9125
:101B60004F913F912F910F9000925B000F900FBE0D
:101B70000F901F9018951F920F920FB60F92009022
:101B80005B000F9211242F933F934F935F936F93BA
:101B90007F938F939F93AF93BF93EF93FF93DF93C5
:101BA000CF93CDB7DEB78091C2029091C302009768
:101BB00029F0E091C202F091C3020995CF91DF9123
:101BC000FF91EF91BF91AF919F918F917F916F9115
:101BD0005F914F913F912F910F9000925B000F907A
:101BE0000FBE0F901F9018951F920F920FB60F9275
:101BF00000905B000F9211242F933F934F935F93BC
:101C00006F937F938F939F93AF93BF93EF93FF93C4
:101C1000DF93CF93CDB7DEB78091C4029091C50218
:101C2000009729F0E091C402F091C5020995CF9187
:101C3000DF91FF91EF91BF91AF919F918F917F9134
:101C40006F915F914F913F912F910F9000925B00A8
:101C50000F900FBE0F901F9018951F920F920FB606
:101C60000F9200905B000F9211242F933F934F939C
:101C70005F936F937F938F939F93AF93BF93EF93F4
:101C8000FF93DF93CF93CDB7DEB78091C4029091DD
:101C9000C502009729F0E091C402F091C5020995B0
:101CA000CF91DF91FF91EF91BF91AF919F918F9174
:101CB0007F916F915F914F913F912F910F90009283
:101CC0005B000F900FBE0F901F9018951F920F9200
:101CD0000FB60F9200905B000F9211242F933F9349
:101CE0004F935F936F937F938F939F93AF93BF9324
:101CF000EF93FF93DF93CF93CDB7DEB78091C4020C
:101D00009091C502009729F0E091C402F091C502BC
:101D10000995CF91DF91FF91EF91BF91AF919F9185
:101D20008F917F916F915F914F913F912F910F9084
:101D300000925B000F900FBE0F901F9018951F929E
:101D40000F920FB60F9200905B000F9211242F9309
:101D50003F934F935F936F937F938F939F93AF9333
:101D6000BF93EF93FF93DF93CF93CDB7DEB780910F
:101D7000C4029091C502009729F0E091C402F0914D
:101D8000C5020995CF91DF91FF91EF91BF91AF917E
:101D90009F918F917F916F915F914F913F912F9183
:101DA0000F9000925B000F900FBE0F901F90189540
:101DB000DF93CF9300D000D0CDB7DEB79A8389836D
:101DC000E981FA8180818093C602E2E5F0E0108229
:101DD000A3E5B0E0E981FA818181882F90E09695B2
:101DE000982F882797958795282FE981FA818181F7
:101DF000882F90E00024969587950794969587956F
:101E00000794982F802D8074282BE981FA81818195
:101E1000882F90E0880F991F880F991F8870282BB2
:101E2000E981FA818481882F90E082959295907F54
:101E30009827807F9827922F982BE981FA818081BB
:101E4000892B8C93E981FA818181882341F4A7E56C
:101E5000B0E0E7E5F0E0808181608C9352C0E981D9
:101E6000FA818181823079F4A7E5B0E0E7E5F0E01E
:101E7000808182608C93A1E5B0E0E981FA81828162
:101E800093818C933EC0E981FA8181811C828230EA
:101E900011F481E08C83E981FA8184811B82813095
:101EA00011F491E09B838C819B8189238823B1F07D
:101EB000A7E5B0E0E7E5F0E0808182608C93A7E3DE
:101EC000B0E0E7E3F0E0808180618C93A1E5B0E0D1
:101ED000E981FA81828193818C9313C0E981FA812F
:101EE0008181833071F4A7E3B0E0E7E3F0E0808123
:101EF00080618C93A1E5B0E0E981FA8182819381D0
:101F00008C930F900F900F900F90CF91DF910895C9
:101F1000DF93CF93CDB7DEB7E2E5F0E01082CF914B
:101F2000DF910895DF93CF93CDB7DEB7A3E5B0E09F
:101F3000E3E5F0E08081887F8C93CF91DF91089575
:101F4000DF93CF93CDB7DEB7A3E5B0E0E3E5F0E0F4
:101F50008081887F8C93A3E5B0E0E3E5F0E0908199
:101F60008091C602892B8C93CF91DF910895DF93E6
:101F7000CF930F92CDB7DEB78983E1E5F0E0898199
:101F800080830F90CF91DF910895DF93CF9300D09E
:101F9000CDB7DEB79A83898389819A819093BF02F6
:101FA0008093BE020F900F90CF91DF910895DF9341
:101FB000CF93CDB7DEB7E3E5F0E01082CF91DF91AC
:101FC0000895DF93CF9300D0CDB7DEB79A8389838E
:101FD000E981FA8180818093C802E4E4F0E0108214
:101FE000A5E4B0E0E981FA818181882F90E096959F
:101FF000982F882797958795282FE981FA818181E5
:10200000882F90E00024969587950794969587955C
:102010000794982F802D8074282BE981FA81818183
:10202000882F90E0880F991F880F991F8870282BA0
:10203000E981FA818481882F90E082959295907F42
:102040009827807F9827922F982BE981FA818081A9
:10205000892B8C93E981FA818181882341F4A7E55A
:10206000B0E0E7E5F0E0808180648C932EC0E981E8
:10207000FA8181818230B1F4A7E5B0E0E7E5F0E0D4
:10208000808180688C93A7E3B0E0E7E3F0E0808193
:1020900080688C93A3E4B0E0E981FA818281938126
:1020A0008C9313C0E981FA818181833071F4A7E3B5
:1020B000B0E0E7E3F0E0808180688C93A3E4B0E0D7
:1020C000E981FA81828193818C930F900F90CF9157
:1020D000DF910895DF93CF93CDB7DEB7E4E4F0E06E
:1020E0001082CF91DF910895DF93CF93CDB7DEB704
:1020F000A5E4B0E0E5E4F0E08081887F8C93CF91A7
:10210000DF910895DF93CF93CDB7DEB7A5E4B0E0BC
:10211000E5E4F0E08081887F8C93A5E4B0E0E5E41D
:10212000F0E090818091C802892B8C93CF91DF9150
:102130000895DF93CF930F92CDB7DEB78983E3E4A1
:10214000F0E0898180830F90CF91DF910895DF9334
:10215000CF9300D0CDB7DEB79A83898389819A81E6
:102160009093C1028093C0020F900F90CF91DF91A6
:102170000895DF93CF93CDB7DEB7E5E4F0E01082AA
:10218000CF91DF910895DF93CF9300D0CDB7DEB725
:102190009A838983E981FA8180818093C702E981EA
:1021A000FA8181818823B1F4ECE4F0E0118210829D
:1021B000A7E5B0E0E7E5F0E0808184608C93EAE792
:1021C000F0E080EE8083AEE4B0E0E981FA818081C6
:1021D0008C9358C1E981FA818181823009F063C012
:1021E000A7E5B0E0E7E5F0E0808189618C93ECE45D
:1021F000F0E011821082AAE4B0E0E981FA818281E4
:10220000938111969C938E93A8E4B0E0E981FA81C2
:102210008581968111969C938E93A8E7B0E0E98121
:10222000FA818085918511969C938E93A6E4B0E007
:10223000E981FA818385948511969C938E93AFE40E
:10224000B0E0E981FA818481882F90E0002496959E
:1022500087950794969587950794982F802D282F1A
:10226000E981FA818781882F90E082959295907F0D
:102270009827807F9827282BE981FA818285882FEB
:1022800090E0880F991F880F991F822B8C93AEE4E2
:10229000B0E0E981FA81808188608C93EAE7F0E020
:1022A00080EE8083EFC0E981FA818181813009F07D
:1022B0006FC0A7E3B0E0E7E3F0E0808180628C9339
:1022C000A7E3B0E0E7E3F0E0808180648C93A7E3CC
:1022D000B0E0E7E3F0E0808180688C93A7E5B0E0B0
:1022E000E7E5F0E0808189618C93ECE4F0E0118215
:1022F0001082AAE4B0E0E981FA818281938111968B
:102300009C938E93A8E4B0E0E981FA81858196815F
:1023100011969C938E93A8E7B0E0E981FA818085BD
:10232000918511969C938E93AFE4B0E0E981FA8198
:102330008481882F90E00024969587950794969540
:1023400087950794982F802D282FE981FA8187811E
:10235000882F90E082959295907F9827807F98278C
:10236000282BE981FA818285882F90E0880F991FB8
:10237000880F991F822B8C93AEE4B0E0E981FA813B
:10238000808188608C93EAE7F0E080EE80837AC0F9
:10239000E981FA818181833009F074C0A7E3B0E05C
:1023A000E7E3F0E0808180628C93A7E3B0E0E7E3AD
:1023B000F0E0808180648C93A7E3B0E0E7E3F0E095
:1023C000808180688C93ECE4F0E011821082A7E5B4
:1023D000B0E0E7E5F0E0808189618C93AAE4B0E0A9
:1023E000E981FA818281938111969C938E93A8E46E
:1023F000B0E0E981FA818581968111969C938E9354
:10240000A8E7B0E0E981FA818085918511969C93D7
:102410008E93A6E4B0E0E981FA81838594851196D4
:102420009C938E93AFE4B0E0E981FA818481882F98
:1024300090E0002496958795079496958795079444
:10244000982F802D282FE981FA818781882F90E0AD
:1024500082959295907F9827807F9827282BE981F5
:10246000FA818285882F90E0880F991F880F991F25
:10247000822B82608C93AEE4B0E0E981FA818081A6
:1024800088618C930F900F90CF91DF910895DF9327
:10249000CF93CDB7DEB7ECE4F0E011821082CF919C
:1024A000DF910895DF93CF93CDB7DEB7AEE4B0E010
:1024B000EEE4F0E08081887F8C93CF91DF910895E6
:1024C000DF93CF93CDB7DEB7AEE4B0E0EEE4F0E05B
:1024D0008081887F8C93AEE4B0E0EEE4F0E0908100
:1024E0008091C702892B8C93CF91DF910895DF9360
:1024F000CF9300D000D0CDB7DEB79A8389837C8399
:102500006B83EAE4F0E089819A8191838083E8E437
:10251000F0E08B819C81918380830F900F900F90CE
:102520000F90CF91DF910895DF93CF9300D0CDB777
:10253000DEB79A83898389819A819093C3028093BD
:10254000C2020F900F90CF91DF910895DF93CF9348
:10255000CDB7DEB7EFE4F0E01082EEE4F0E01082F9
:10256000EAE7F0E01082CF91DF910895DF93CF93F7
:1025700000D0CDB7DEB79A838983E981FA81808163
:102580008093C902E981FA8181818823B1F4E8E866
:10259000F0E011821082A7E5B0E0E7E5F0E080818D
:1025A00084608C93ECE8F0E080EE8083AAE8B0E0F1
:1025B000E981FA8180818C9364C1E981FA8181810A
:1025C000823009F06FC0A2E2B0E0E2E2F0E0808188
:1025D00088608C93A2E2B0E0E2E2F0E0808180616A
:1025E0008C93A2E2B0E0E2E2F0E0808180628C9322
:1025F000A7E5B0E0E7E5F0E080818A618C93E8E848
:10260000F0E011821082A6E8B0E0E981FA818281CF
:10261000938111969C938E93A4E8B0E0E981FA81AE
:102620008581968111969C938E93A2E8B0E0E98112
:10263000FA818085918511969C938E93ABE8B0E0EA
:10264000E981FA818481882F90E00024969587950E
:102650000794969587950794982F802D282FE981C8
:10266000FA818781882F90E082959295907F9827B4
:10267000807F9827282BE981FA818285882F90E036
:10268000880F991F880F991F822B8C93AAE8B0E0BE
:10269000E981FA81808188618C93ECE8F0E080EE3A
:1026A0008083EFC0E981FA818181813009F06FC0B8
:1026B000A2E2B0E0E2E2F0E0808188608C93A2E2E6
:1026C000B0E0E2E2F0E0808180618C93A2E2B0E0D1
:1026D000E2E2F0E0808180628C93A7E5B0E0E7E57C
:1026E000F0E080818A618C93E8E8F0E0118210824A
:1026F000A6E8B0E0E981FA818281938111969C93EA
:102700008E93A4E8B0E0E981FA81858196811196E3
:102710009C938E93A2E8B0E0E981FA81808591854F
:1027200011969C938E93ABE8B0E0E981FA818481A5
:10273000882F90E000249695879507949695879525
:102740000794982F802D282FE981FA818781882F7F
:1027500090E082959295907F9827807F9827282BEC
:10276000E981FA818285882F90E0880F991F880F70
:10277000991F822B8C93AAE8B0E0E981FA818081CD
:1027800088608C93ECE8F0E080EE80837AC0E98189
:10279000FA818181833009F074C0A2E2B0E0E2E204
:1027A000F0E0808188608C93A2E2B0E0E2E2F0E0A9
:1027B000808180618C93A2E2B0E0E2E2F0E080816F
:1027C00080628C93A7E5B0E0E7E5F0E080818A6164
:1027D0008C93E8E8F0E011821082A6E8B0E0E9818D
:1027E000FA818281938111969C938E93A4E8B0E044
:1027F000E981FA818581968111969C938E93A2E856
:10280000B0E0E981FA818085918511969C938E9341
:10281000A0E8B0E0E981FA818385948511969C93C4
:102820008E93ABE8B0E0E981FA818481882F90E053
:102830000024969587950794969587950794982FE9
:10284000802D282FE981FA818781882F90E0829559
:102850009295907F9827807F9827282BE981FA818D
:102860008285882F90E0880F991F880F991F822BEF
:1028700082608C93AAE8B0E0E981FA818081886166
:102880008C930F900F90CF91DF910895DF93CF93AA
:10289000CDB7DEB7E8E8F0E011821082CF91DF918A
:1028A0000895DF93CF93CDB7DEB7AAE8B0E0EAE8AA
:1028B000F0E08081887F8C93CF91DF910895DF9342
:1028C000CF93CDB7DEB7AAE8B0E0EAE8F0E08081C8
:1028D000887F8C93AAE8B0E0EAE8F0E090818091EC
:1028E000C902892B8C93CF91DF910895DF93CF9309
:1028F00000D000D0CDB7DEB79A8389837C836B8309
:10290000E6E8F0E089819A8191838083E4E8F0E051
:102910008B819C81918380830F900F900F900F90FB
:10292000CF91DF910895DF93CF9300D0CDB7DEB77D
:102930009A83898389819A819093C5028093C40286
:102940000F900F90CF91DF910895DF93CF93CDB784
:10295000DEB7EFE4F0E01082EEE4F0E01082EAE7A8
:10296000F0E01082CF91DF9108950F931F93DF93D2
:10297000CF9300D0CDB7DEB79A838983EBE2F0E046
:1029800082E08083EAE2F0E088E18083E981FA81F5
:102990008281873039F4AAE2B0E0EAE2F0E0808197
:1029A00087608C93A5E9B0E0E981FA818081882F66
:1029B00090E082959295907F9827807F9827282F86
:1029C000E981FA818181882F90E0880F991F880F13
:1029D000991F880F991F282BE981FA818281882FFE
:1029E00090E083709070880F991F822B8C9309E27E
:1029F00010E0E981FA8183819481A581B681880FF5
:102A0000991FAA1FBB1F880F991FAA1FBB1F880FE2
:102A1000991FAA1FBB1F9C01AD0180E094E2A4EFA7
:102A2000B0E0BC01CD010E94A516DA01C9018150B8
:102A3000F801808300E910E0E981FA8183819481C3
:102A4000A581B681880F991FAA1FBB1F880F991FE8
:102A5000AA1FBB1F880F991FAA1FBB1F9C01AD0196
:102A600080E094E2A4EFB0E0BC01CD010E94A51685
:102A7000DA01C9010197A109B109892F9A2FAB2F5A
:102A8000BB27F80180830F900F90CF91DF911F91AA
:102A90000F910895DF93CF930F92CDB7DEB789835F
:102AA000EBE2F0E08081882F90E0807290700097D8
:102AB000B9F3ECE2F0E0898180830F90CF91DF9150
:102AC0000895DF93CF93CDB7DEB7EBE2F0E08081DE
:102AD0008823DCF7ECE2F0E08081CF91DF9108956C
:102AE000DF93CF9300D0CDB7DEB79A8389830AC036
:102AF000E981FA8180810E944A1589819A81019633
:102B00009A838983E981FA818081882389F70F90EC
:102B10000F90CF91DF910895DF93CF9300D0CDB781
:102B2000DEB79A83898381E695E19A83898309C018
:102B300089819A8101969A83898381E695E19A83B6
:102B40008983E981FA818081833291F71A8219821F
:102B50000F900F90CF91DF9108950F931F93DF9304
:102B6000CF9300D0CDB7DEB79A838983EBE9F0E04D
:102B700082E08083EAE9F0E088E18083E981FA81FC
:102B80008281873039F4AAE9B0E0EAE9F0E0808197
:102B900087608C93A5E9B0E0E981FA818081882F74
:102BA00090E082959295907F9827807F9827282F94
:102BB000E981FA818181882F90E0880F991F880F21
:102BC000991F880F991F282BE981FA818281882F0C
:102BD00090E083709070880F991F822B8C9309E985
:102BE00010E0E981FA8183819481A581B681880F03
:102BF000991FAA1FBB1F880F991FAA1FBB1F880FF1
:102C0000991FAA1FBB1F9C01AD0180E094E2A4EFB5
:102C1000B0E0BC01CD010E94A516DA01C9018150C6
:102C2000F801808308E910E0E981FA8183819481C9
:102C3000A581B681880F991FAA1FBB1F880F991FF6
:102C4000AA1FBB1F880F991FAA1FBB1F9C01AD01A4
:102C500080E094E2A4EFB0E0BC01CD010E94A51693
:102C6000DA01C9010197A109B109892F9A2FAB2F68
:102C7000BB27F80180830F900F90CF91DF911F91B8
:102C80000F910895DF93CF930F92CDB7DEB789836D
:102C9000EBE9F0E08081882F90E0807290700097DF
:102CA000B9F3ECE9F0E0898180830F90CF91DF9157
:102CB0000895DF93CF93CDB7DEB7EBE9F0E08081E5
:102CC0008823DCF7ECE9F0E08081CF91DF91089573
:102CD000DF93CF9300D0CDB7DEB79A8389830AC044
:102CE000E981FA8180810E94421689819A81019648
:102CF0009A838983E981FA818081882389F70F90FB
:102D00000F90CF91DF910895DF93CF9300D0CDB78F
:102D1000DEB79A83898389E596E19A83898309C01E
:102D200089819A8101969A83898389E596E19A83BC
:102D30008983E981FA818081833291F71A8219822D
:102D40000F900F90CF91DF910895A1E21A2EAA1B48
:102D5000BB1BFD010DC0AA1FBB1FEE1FFF1FA2174B
:102D6000B307E407F50720F0A21BB30BE40BF50B48
:102D7000661F771F881F991F1A9469F760957095D1
:102D8000809590959B01AC01BD01CF0108952F92D4
:102D90003F924F925F926F927F928F929F92AF92EB
:102DA000BF92CF92DF92EF92FF920F931F93CF9338
:102DB000DF93CDB7DEB7CA1BDB0B0FB6F894DEBFCF
:102DC0000FBECDBF09942A88398848885F846E84F5
:102DD0007D848C849B84AA84B984C884DF80EE803F
:102DE000FD800C811B81AA81B981CE0FD11D0FB648
:102DF000F894DEBF0FBECDBFED0108950F931F9372
:102E0000DF93CF93CDB7DEB72E970FB6F894DEBF22
:102E10000FBECDBF0D891E8986E08C831A8309837E
:102E20008FEF9FE79E838D839E01275E3F4FCE01EC
:102E300001966F89788DA9010E942F172F813885FF
:102E4000020F131FF80110822E960FB6F894DEBF02
:102E50000FBECDBFCF91DF911F910F9108952F929B
:102E60003F924F925F926F927F928F929F92AF921A
:102E7000BF92CF92DF92EF92FF920F931F93DF9357
:102E8000CF93CDB7DEB72B970FB6F894DEBF0FBE4A
:102E9000CDBF3C012B015A01FC01178216828381B0
:102EA00081FD03C06FEF7FEFC6C19AE0892E1E013E
:102EB0000894211C311CF3012381F20123FD85912B
:102EC00023FF81912F01882309F4B2C1853239F49F
:102ED00023FD859123FF81912F01853229F490E014
:102EE000B3010E944B19E7CF982FFF24EE249924B9
:102EF000FFE1FF15D0F09B3269F09C3228F490324C
:102F000059F0933291F40EC09D3249F0903369F438
:102F100041E024C052E0F52A84E0F82A28C098E075
:102F2000F92A25C0E0E1FE2A22C0F7FC29C0892F3A
:102F300080538A3070F4F6FE05C0989C902C1124C2
:102F4000980E15C0E89CE02C1124E80EF0E2FF2A50
:102F50000EC09E3229F4F6FC6BC140E4F42A07C08F
:102F60009C3619F450E8F52A02C0983649F4F2016B
:102F700023FD959123FF91912F01992309F0B8CF5B
:102F8000892F8554833018F08052833038F444E020
:102F900050E0A40EB51E5FE359830FC0933631F0A5
:102FA000933779F0933509F056C020C0F501808140
:102FB000898342E050E0A40EB51E610101E010E0FB
:102FC00012C0F501C080D180F6FC03C06FEF7FEF27
:102FD00002C0692D70E042E050E0A40EB51EC601AB
:102FE0000E9440198C015FE7F52214C0F501C080F2
:102FF000D180F6FC03C06FEF7FEF02C0692D70E057
:1030000042E050E0A40EB51EC6010E9435198C01A5
:1030100050E8F52AF3FE07C01AC080E290E0B30141
:103020000E944B19EA948E2D90E008171907A8F317
:103030000EC0F601F7FC8591F7FE81916F0190E0DB
:10304000B3010E944B19E110EA94015010400115A0
:10305000110579F7EAC0943611F0993669F5F7FE53
:1030600008C0F501208131814281538184E090E0E4
:103070000AC0F501808191819C01442737FD40956C
:10308000542F82E090E0A80EB91E9FE6F92257FF68
:1030900009C050954095309521953F4F4F4F5F4F58
:1030A000E0E8FE2ACA01B901A1012AE030E00E944D
:1030B0007719D82ED21840C0953729F41F2D1F7EBE
:1030C0002AE030E01DC01F2D197F9F3661F0903738
:1030D00020F4983509F0ACC00FC0903739F098371C
:1030E00009F0A6C004C028E030E00AC0106114FD59
:1030F000146020E130E004C014FD166020E132E0ED
:1031000017FF08C0F501608171818281938144E0DD
:1031100050E008C0F50180819181BC0180E090E021
:1031200042E050E0A40EB51EA1010E947719D82EEE
:10313000D2188FE7F82EF122F6FE0BC05EEFF522D3
:10314000D91438F4F4FE07C0F2FC05C08FEEF82263
:1031500002C01D2D01C0192DF4FE0DC0FE01ED0DA4
:10316000F11D8081803319F499EEF92208C01F5FA8
:10317000F2FE05C003C08F2D867809F01F5F0F2D6A
:10318000F3FC14C0F0FE0FC01E1510F09D2C0BC0F8
:103190009D2C9E0C911A1E2D06C080E290E0B3017A
:1031A0000E944B191F5F1E15C0F304C01E1510F4BA
:1031B000E11A01C0EE2404FF0FC080E390E0B301E8
:1031C0000E944B1902FF1DC001FD03C088E790E07B
:1031D0000EC088E590E00BC0802F867891F001FF4B
:1031E00002C08BE201C080E2F7FC8DE290E0B30107
:1031F0000E944B1906C080E390E0B3010E944B1976
:103200009A94D914C0F3DA94F101ED0DF11D808187
:1032100090E0B3010E944B19DD20A9F706C080E2BF
:1032200090E0B3010E944B19EA94EE20C1F743CE1F
:10323000F30166817781CB012B960FB6F894DEBF40
:103240000FBECDBFCF91DF911F910F91FF90EF90F7
:10325000DF90CF90BF90AF909F908F907F906F90B6
:103260005F904F903F902F900895FC010590615022
:1032700070400110D8F7809590958E0F9F1F08958C
:10328000FC016150704001900110D8F78095909535
:103290008E0F9F1F08950F931F93CF93DF938C0181
:1032A000EB018B8181FF1BC082FF0DC02E813F810E
:1032B0008C819D812817390764F4E881F981019395
:1032C000F983E88306C0E885F985802F0995892B65
:1032D00031F48E819F8101969F838E8302C00FEF10
:1032E0001FEFC801DF91CF911F910F910895FA014F
:1032F000AA27283051F1203181F1E8946F936E7F35
:103300006E5F7F4F8F4F9F4FAF4FB1E03ED0B4E025
:103310003CD0670F781F891F9A1FA11D680F791F66
:103320008A1F911DA11D6A0F711D811D911DA11D77
:1033300020D009F468943F912AE0269F1124301987
:10334000305D3193DEF6CF010895462F4770405D22
:103350004193B3E00FD0C9F7F6CF462F4F70405DD1
:103360004A3318F0495D31FD4052419302D0A9F72C
:10337000EACFB4E0A6959795879577956795BA9526
:10338000C9F700976105710508959B01AC010A2EEC
:1033900006945795479537952795BA95C9F7620FC3
:0E33A000731F841F951FA01D0895F894FFCF82
:1033AE00256400506572696F64206F6620656163E5
:1033BE0068206372616E6B20746F6F7468203A20A0
:1033CE0000206D73005469636B204E6F2E203A20DF
:1033DE00004E756D626572206F66207469636B7343
:1033EE00203D20005265766F6C7574696F6E206E8D
:1033FE00756D626572203D200044757479204379A5
:10340E00636C65206973203A2000202500204772E6
:10341E006164756174696F6E2050726F6A65637452
:10342E00202D2D3E205369676E616C2066726F6D84
:10343E002045435520000000000000000000000160
:10344E000202030303030404040404040404050534
:10345E00050505050505050505050505050506060C
:10346E0006060606060606060606060606060606EE
:10347E0006060606060606060606060606060707DC
:10348E0007070707070707070707070707070707BE
:10349E0007070707070707070707070707070707AE
:1034AE00070707070707070707070707070707079E
:1034BE00070707070707070707070707070708088C
:1034CE00080808080808080808080808080808086E
:1034DE00080808080808080808080808080808085E
:1034EE00080808080808080808080808080808084E
:1034FE00080808080808080808080808080808083E
:10350E00080808080808080808080808080808082D
:10351E00080808080808080808080808080808081D
:10352E00080808080808080808080808080808080D
:10353E00080808080808080808080808080802000B
:06354E00038025000000CF
:00000001FF
