S014000050756C73654D6561737572652E7372656335
S113000045C0000060C000005EC000005CC000008D
S11300105AC0000058C0000056C0000054C0000080
S113002052C0000050C000004EC000004DC000008F
S11300304AC0000048C0000046C0000044C00000A0
S113004042C0000040C000003EC000003CC00000B0
S11300503AC0000038C0000036C0000034C00000C0
S113006032C0000030C000002EC000002CC00000D0
S11300702AC0000028C0000026C0000024C00000E0
S113008022C0000020C000001EC0000011241FBEBA
S1130090CFEFD0E1DEBFCDBF11E0A0E0B1E0E8E8F2
S11300A0F8E000E00BBF02C007900D92A231B10747
S11300B0D9F721E0A2E1B1E001C01D92AD31B20750
S11300C0E1F75CD1DFC39CCF1F920F920FB60F9262
S11300D011240BB60F922F933F934F935F936F931B
S11300E07F938F939F93AF93BF93EF93FF93E0918D
S11300F01201F0911301309709F00995FF91EF91E6
S1130100BF91AF919F918F917F916F915F914F912B
S11301103F912F910F900BBE0F900FBE0F901F9029
S113012018951FBC806C8EBD80EE80937A001DBC38
S11301301CBC1BBC1ABC17BC16BC80E287BF8FB7A3
S113014080688FBF81B38F7E81BB08959EB59F7BEE
S11301509EBD2EB530E4839FC0011124822B8EBD39
S1130160089586B597B508951DBC1CBC0895909359
S1130170130180931201089595B39F7B95BBE9EF1A
S1130180F0E03197F1F700C0000095B3906895BB9B
S1130190E9EFF0E03197F1F700C0000098B39F70E9
S11301A098BB98B3282F207F922B98BB95B39F7749
S11301B095BBE9EFF0E03197F1F700C0000095B38B
S11301C09F7B95BB95B3906895BBE9EFF0E03197C1
S11301D0F1F700C0000098B39F7098BB28B3F0E11A
S11301E08F9FC0011124822B88BB85B38F7785BB79
S11301F089EF90E00197F1F700C00000089584B3FF
S1130200806484BB84B3806884BB87B3806F87BBFE
S113021082E0B2DF88E2B0DF89EF90E00197F1F786
S113022000C0000081E0A8DF8CE0A6CF089581E043
S1130230A3CF089595B3906495BBE9EFF0E03197AF
S1130240F1F700C0000095B3906895BBE9EFF0E0CA
S11302503197F1F700C0000098B39F7098BB98B332
S1130260282F207F922B98BB95B39F7795BBE9EFFE
S1130270F0E03197F1F700C0000095B3906495BBAE
S113028095B3906895BBE9EFF0E03197F1F700C0C2
S1130290000098B39F7098BB28B3F0E18F9FC00112
S11302A01124822B88BB85B38F7785BB89EF90E0BF
S11302B00197F1F700C0000008950F931F93CF93A7
S11302C0DF938C01C0E0D0E002C0B4DF2196F801D6
S11302D0EC0FFD1F80818111F8CFDF91CF911F9129
S11302E00F910895813039F058F0823031F0833025
S11302F031F060E005C0605C03C0605F01C0605B1A
S1130300862F806839CF0895CF93DF93EA01EADF1F
S1130310CE01D3DFDF91CF9108954AE080C20895E2
S1130320809114018F5F80931401809114018230B5
S113033069F018F4813031F00895833081F084300D
S1130340B9F0089580E002DF0FCF08950ADF90939B
S113035018018093170181E0F9DE06CF089501DFCB
S1130360909316018093150180E0F0DEFDCE089590
S113037081E0ECDEF9DE109214010895CF93DF934F
S1130380CDB7DEB72A970FB6F894DEBF0FBECDBF48
S113039036DF4DDF82E0C5DE81E0D8DEE5DE80E9D0
S11303A091E0E5DE609117017091180180E090E022
S11303B045D16B017C01609117017091180180E0B7
S11303C090E03CD14B015C016091150170911601E4
S11303D080E090E033D19B01AC01C501B40131D080
S11303E09B01AC01C701B60190D020E030E048EC9D
S11303F052E4B2D16093190170931A0180931B01E6
S113040090931C0140E051E060E080E07DDF60916A
S1130410190170911A0180911B0190911C01DDD08A
S1130420DC01CB01BE016F5F7F4F77DF60E081E0CD
S113043059DFCE01019641DF8FE091E03EDFB2CF7C
S11304405058BB27AA270ED04DC13ED130F043D11E
S113045020F031F49F3F11F41EF433C10EF4E09503
S1130460E7FB29C1E92F4FD180F3BA17620773075D
S11304708407950718F071F49EF567C10EF4E095B2
S11304800B2EBA2FA02D0B01B90190010C01CA014A
S1130490A0011124FF27591B99F0593F50F4503EF5
S11304A068F11A16F040A22F232F342F4427585FE7
S11304B0F3CF469537952795A795F0405395C9F7FF
S11304C07EF41F16BA0B620B730B840BBAF09150B7
S11304D0A1F0FF0FBB1F661F771F881FC2F70EC056
S11304E0BA0F621F731F841F48F487957795679529
S11304F0B795F7959E3F08F0B3CF9395880F08F012
S11305009927EE0F9795879508950CD0EBC0E3D00B
S113051040F0DAD030F021F45F3F19F0CCC0511133
S113052015C1CFC0F0D098F39923C9F35523B1F383
S1130530951B550BBB27AA2762177307840738F04E
S11305409F5F5F4F220F331F441FAA1FA9F333D0AD
S11305500E2E3AF0E0E830D091505040E695001C61
S1130560CAF729D0FE2F27D0660F771F881FBB1F1D
S1130570261737074807AB07B0E809F0BB0B802DF7
S1130580BF01FF2793585F4F2AF09E3F510568F043
S113059092C0DCC05F3FECF3983EDCF38695779520
S11305A06795B795F7959F5FC9F7880F911D969545
S11305B0879597F90895E1E0660F771F881FBB1FA1
S11305C0621773078407BA0720F0621B730B840B4E
S11305D0BA0BEE1F88F7E095089504D06894B11122
S11305E0B5C0089598D088F09F5790F0B92F9927F7
S11305F0B751A0F0D1F0660F771F881F991F1AF02A
S1130600BA95C9F712C0B13081F09FD0B1E0089516
S11306109CC0672F782F8827B85F39F0B93FCCF397
S1130620869577956795B395D9F73EF4909580951F
S1130630709561957F4F8F4F9F4F0895E89409C03F
S113064097FB3EF490958095709561957F4F8F4F01
S11306509F4F9923A9F0F92F96E9BB279395F69517
S1130660879577956795B795F111F8CFFAF4BB0F95
S113067011F460FF1BC06F5F7F4F8F4F9F4F16C0F9
S1130680882311F096E911C0772321F09EE8872F83
S1130690762F05C0662371F096E8862F70E060E03F
S11306A02AF09A95660F771F881FDAF7880F9695B8
S11306B0879597F9089597F99F6780E870E060E05F
S11306C008959FEF80EC089500240A9416161706E7
S11306D018060906089500240A941216130614062F
S11306E005060895092E0394000C11F4882352F092
S11306F0BB0F40F4BF2B11F460FF04C06F5F7F4F4A
S11307008F4F9F4F089557FD9058440F551F59F030
S11307105F3F71F04795880F97FB991F61F09F3FEA
S113072079F087950895121613061406551FF2CF13
S11307304695F1DF08C0161617061806991FF1CF63
S113074086957105610508940895E894BB2766278A
S11307507727CB0197F908950BD0C4CFB5DF28F0E4
S1130760BADF18F0952309F0A6CFABCF1124EECF52
S1130770CADFA0F3959FD1F3950F50E0551F629FF8
S1130780F001729FBB27F00DB11D639FAA27F00DE6
S1130790B11DAA1F649F6627B00DA11D661F829F0D
S11307A02227B00DA11D621F739FB00DA11D621FF2
S11307B0839FA00D611D221F749F3327A00D611D0F
S11307C0231F849F600D211D822F762F6A2F1124F1
S11307D09F5750408AF0E1F088234AF0EE0FFF1F44
S11307E0BB1F661F771F881F91505040A9F79E3F7B
S11307F0510570F060CFAACF5F3FECF3983EDCF375
S1130800869577956795B795F795E7959F5FC1F7B7
S1130810FE2B880F911D9695879597F90895BB2710
S11308204A3031F4992322F4BDE2909581959F4F8B
S113083001C0BB27FB015527AA27880F991FAA1FB0
S1130840A41710F0A41B83955051B9F7A05DAA33E7
S113085008F0A95DA193009779F7B111B1931192B2
S1130860CB0100C0DC01FC01672F71917723E1F714
S1130870329704C07C916D9370836291AE17BF0769
S10B0880C8F30895F894FFCFBA
S1130888447574794379636C65206973203A002050
S1050898250035
S9030000FC
