:100000000C9446000C9465000C9465000C946500FB
:100010000C9465000C9465000C9465000C946500CC
:100020000C9465000C943F0C0C94780C0C94FD0916
:100030000C94B10C0C94EA0C0C945C0D0C94CD0B4C
:100040000C94060C0C9465000C9465000C946500EF
:100050000C9465000C9465000C9465000C9465008C
:100060000C94230D0C94360A0C94950D0C94CE0D23
:100070000C94070E0C94400E0C9465000C946500D3
:100080000C9465000C9465000C94650011241FBE4F
:10009000CFEFD0E1DEBFCDBF12E0A0E0B1E0E2E4FF
:1000A000FDE200E00BBF02C007900D92AE30B10739
:1000B000D9F712E0AEE0B2E001C01D92AF32B10755
:1000C000E1F70E9435070C949F160C940000EF9204
:1000D000FF920F931F937B018C0120E030E040E002
:1000E0005FE40E94130488238CF0C801B70120E06C
:1000F00030E040E05FE40E94DF010E9473049B0156
:10010000AC01205030404040504806C0C801B70103
:100110000E9473049B01AC01B901CA011F910F91A8
:10012000FF90EF900895A0E0B0E0E9E9F0E00C94D2
:100130006816DC012B01FA019C91923008F439C158
:10014000EB018881823008F433C1943069F4843043
:1001500009F02FC111969C9111978981981709F484
:1001600028C1A0E0B1E025C1843009F421C182306A
:10017000A9F4923009F01DC19A01AD0188E0EA01AD
:100180000990AE01E90109929E018150C1F7E20197
:10019000898111969C918923818308C1923009F449
:1001A00007C112962D903C901397EB018A819B8199
:1001B0001496AD90BD90CD90DC901797EC80FD80AB
:1001C0000E811F819101281B390BB90137FF04C033
:1001D00066277727621B730B603271050CF061C0D4
:1001E000121613066CF537014801062E04C09694CA
:1001F0008794779467940A94D2F721E030E040E046
:1002000050E004C0220F331F441F551F6A95D2F7D8
:1002100021503040404050402E213F214023512367
:10022000211531054105510521F021E030E040E084
:1002300050E079018A01E628F728082919293CC0ED
:10024000232BD1F1260E371E35014601062E04C0A0
:1002500096948794779467940A94D2F721E030E0DB
:1002600040E050E004C0220F331F441F551F6A9521
:10027000D2F721503040404050402A213B214C21B0
:100280005D21211531054105510521F021E030E0C6
:1002900040E050E059016A01A628B728C828D928AB
:1002A0000BC0821593052CF01C01AA24BB24650108
:1002B00003C0EE24FF24870111969C91D201119670
:1002C0008C91981709F445C0992339F0A80197013A
:1002D0002A193B094C095D0906C0A60195012E1992
:1002E0003F09400B510B57FD08C011823382228217
:1002F00024833583468357831DC081E08183338205
:10030000228288279927DC01821B930BA40BB50B53
:1003100084839583A683B7830DC0220F331F441FA8
:10032000551F2483358346835783828193810197A8
:10033000938382832481358146815781DA01C90103
:100340000197A109B1098F5F9F4FAF4FBF4328F3BA
:100350000BC0918333822282EA0CFB1C0C1D1D1DF5
:10036000E482F5820683178383E0808324813581CC
:100370004681578157FF1AC0C901AA2797FDA0954A
:10038000BA2F81709070A070B070569547953795D0
:100390002795822B932BA42BB52B84839583A6833F
:1003A000B78382819381019693838283DF0101C0A9
:1003B000D201CD01CDB7DEB7E2E10C948416A0E204
:1003C000B0E0E5EEF1E00C94741669837A838B83D8
:1003D0009C832D833E834F835887E9E0EE2EF12CDA
:1003E000EC0EFD1ECE010196B7010E9464068E013F
:1003F0000F5E1F4FCE010596B8010E9464068A89E0
:1004000091E089278A8BC701B801AE01475E5F4F33
:100410000E9493000E948F05A096E6E00C9490162F
:10042000A0E2B0E0E6E1F2E00C94741669837A830E
:100430008B839C832D833E834F835887F9E0EF2E77
:10044000F12CEC0EFD1ECE010196B7010E94640650
:100450008E010F5E1F4FCE010596B8010E94640603
:10046000C701B801AE01475E5F4F0E9493000E9432
:100470008F05A096E6E00C949016A0E2B0E0E3E4CD
:10048000F2E00C94681669837A838B839C832D83B6
:100490003E834F835887CE010196BE01675F7F4F31
:1004A0000E946406CE010596BE016F5E7F4F0E94DA
:1004B00064069985923088F089898230C8F094303A
:1004C00019F4823051F404C0843029F4923081F45C
:1004D00080E091E0C6C0923049F420E09A858A8994
:1004E000981321E02A87CE010996BBC0823049F4D7
:1004F00020E09A858A89981321E02A8BCE014196C3
:10050000B0C02D843E844F8458886D887E888F8843
:10051000988CEE24FF248701AA24BB24650140E0C7
:1005200050E060E070E0E0E0F0E0C10181709070C8
:10053000892BE9F0E60CF71C081D191D9A01AB0187
:100540002A0D3B1D4C1D5D1D80E090E0A0E0B0E059
:10055000E614F7040805190520F481E090E0A0E016
:10056000B0E0BA01A901480F591F6A1F7B1FAA0CEE
:10057000BB1CCC1CDD1C97FE08C081E090E0A0E015
:10058000B0E0A82AB92ACA2ADB2A3196E032F1055E
:1005900049F0660C771C881C991C56944794379434
:1005A0002794C3CFFA85EA892B893C898B859C8562
:1005B000280F391F2E5F3F4F17C0CA0181709070FE
:1005C000892B61F016950795F794E79480E090E009
:1005D000A0E0B0E8E82AF92A0A2B1B2B769567954C
:1005E000579547952F5F3F4F77FDE7CF0CC0440FDE
:1005F000551F661F771F17FD4160EE0CFF1C001F83
:10060000111F21503040403090E0590790E06907B9
:1006100090E4790760F32B8F3C8FDB01CA018F7761
:100620009070A070B07080349105A105B10561F49F
:1006300047FD0AC0E114F1040105110529F0405CF1
:100640005F4F6F4F7F4F40781A8EFE1711F081E099
:100650008A8F4D8F5E8F6F8F78A383E0898FCE0155
:1006600049960E948F05A096E2E10C948416A8E1B9
:10067000B0E0EDE3F3E00C94701669837A838B832A
:100680009C832D833E834F835887B9E0EB2EF12C5A
:10069000EC0EFD1ECE010196B7010E9464068E018C
:1006A0000F5E1F4FCE010596B8010E946406298592
:1006B000223008F47EC03989323010F4B8017CC091
:1006C0008A859A8989278A87243011F0223031F46B
:1006D000231709F06EC060E071E06EC0343039F469
:1006E0001D861E861F86188A1C861B8604C0323013
:1006F00021F484E08987B7015FC02B853C858B8915
:100700009C89281B390B3C872B87ED84FE840F8541
:100710001889AD88BE88CF88D88CEA14FB040C05F4
:100720001D0540F4EE0CFF1C001F111F215030402E
:100730003C872B8720E030E040E050E080E090E014
:10074000A0E0B0E460E070E0EA14FB040C051D05D5
:1007500040F0282B392B4A2B5B2BEA18FB080C099D
:100760001D09B695A79597958795EE0CFF1C001F60
:10077000111F6F5F7F4F6F31710531F7DA01C901CA
:100780008F779070A070B07080349105A105B1058D
:1007900061F427FD0AC0E114F1040105110529F0F7
:1007A000205C3F4F4F4F5F4F20782D873E874F870C
:1007B000588BBE01675F7F4FCB010E948F05689603
:1007C000EAE00C948C16A8E1B0E0E9EEF3E00C94BA
:1007D000741669837A838B839C832D833E834F8336
:1007E000588789E0E82EF12CEC0EFD1ECE01019613
:1007F000B7010E9464068E010F5E1F4FCE01059661
:10080000B8010E9464068985823040F0898982306F
:1008100028F0C701B8010E94DC0601C08FEF68967E
:10082000E6E00C949016A8E1B0E0E9E1F4E00C9465
:10083000741669837A838B839C832D833E834F83D5
:10084000588789E0E82EF12CEC0EFD1ECE010196B2
:10085000B7010E9464068E010F5E1F4FCE01059600
:10086000B8010E9464068985823040F0898982300F
:1008700028F0C701B8010E94DC0601C08FEF68961E
:10088000E6E00C949016A8E1B0E0E9E4F4E00C9402
:10089000741669837A838B839C832D833E834F8375
:1008A000588789E0E82EF12CEC0EFD1ECE01019652
:1008B000B7010E9464068E010F5E1F4FCE010596A0
:1008C000B8010E9464068985823040F089898230AF
:1008D00028F0C701B8010E94DC0601C081E06896DB
:1008E000E6E00C949016ACE0B0E0E9E7F4E00C949C
:1008F000781669837A838B839C83CE010196BE012F
:100900006B5F7F4F0E9464068D81823061F182307F
:1009100050F1843021F48E81882351F12EC02F8133
:10092000388537FD20C06E812F3131051CF06623DC
:10093000F9F023C08EE190E0821B930B29853A8564
:100940004B855C8504C056954795379527958A95C4
:10095000D2F76623B1F050954095309521953F4FE1
:100960004F4F5F4F0EC020E030E040E050E009C044
:100970002FEF3FEF4FEF5FE704C020E030E040E0B3
:1009800050E8B901CA012C96E2E00C949416A8E054
:10099000B0E0EDECF4E00C9470167B018C01611575
:1009A00071058105910519F482E0898360C083E0B7
:1009B00089838EE1C82ED12CDC82CB82ED82FE822F
:1009C0000F831887C801B7010E944005FC013197C9
:1009D000F7FF3BC0222733272E1B3F0B570168012F
:1009E000022E04C0D694C794B794A7940A94D2F761
:1009F00040E050E060E070E081E090E0A0E0B0E036
:100A000004C0880F991FAA1FBB1F2A95D2F7019710
:100A1000A109B1098E219F21A023B1230097A1052F
:100A2000B10521F041E050E060E070E04A295B2927
:100A30006C297D294D835E836F8378878EE190E0FA
:100A40008E1B9F0B9C838B8312C0309781F00E2EE0
:100A500004C0EE0CFF1C001F111F0A94D2F7ED8298
:100A6000FE820F831887CE1ADF0ADC82CB821A82BD
:100A7000CE0101960E948F052896EAE00C948C1610
:100A8000EF92FF920F931F937B018C0180E0E81699
:100A900080E0F80681E0080780E0180788F48FEF0F
:100AA000E816F1040105110531F028F088E090E026
:100AB000A0E0B0E017C080E090E0A0E0B0E012C09D
:100AC00080E0E81680E0F80680E0080781E018077B
:100AD00028F088E190E0A0E0B0E004C080E190E080
:100AE000A0E0B0E020E230E040E050E0281B390B0D
:100AF0004A0B5B0B04C016950795F794E7948A950B
:100B0000D2F7F701E85FFE4F8081281B31094109C8
:100B10005109C9011F910F91FF90EF900895DF9245
:100B2000EF92FF920F931F93FC01E480F580068102
:100B30001781D1808081823048F480E090E0A0E18C
:100B4000B0E0E82AF92A0A2B1B2BA5C0843009F44F
:100B50009FC0823021F4EE24FF24870105C0E114F8
:100B6000F1040105110519F4E0E0F0E096C062819E
:100B700073819FEF623879070CF05BC022E83FEF8A
:100B8000261B370B2A3131052CF020E030E040E005
:100B900050E02AC0B801A701022E04C076956795DF
:100BA000579547950A94D2F781E090E0A0E0B0E035
:100BB00004C0880F991FAA1FBB1F2A95D2F701975F
:100BC000A109B1098E219F21A023B1230097A1057E
:100BD000B10521F081E090E0A0E0B0E09A01AB0126
:100BE000282B392B4A2B5B2BDA01C9018F779070A8
:100BF000A070B07080349105A105B10539F427FFCC
:100C000009C0205C3F4F4F4F5F4F04C0215C3F4FF6
:100C10004F4F5F4FE0E0F0E02030A0E03A07A0E067
:100C20004A07A0E45A0710F0E1E0F0E079018A01F8
:100C300027C06038710564F5FB01E158FF4FD8010A
:100C4000C7018F779070A070B07080349105A105B6
:100C5000B10539F4E7FE0DC080E490E0A0E0B0E01B
:100C600004C08FE390E0A0E0B0E0E80EF91E0A1F98
:100C70001B1F17FF05C016950795F794E79431964B
:100C800087E016950795F794E7948A95D1F705C004
:100C9000EE24FF248701EFEFF0E06E2F67956627C3
:100CA0006795902F9F77D794DD24D7948E2F8695C4
:100CB000492F462B582F5D29B701CA011F910F916B
:100CC000FF90EF90DF900895FC01DB01408151819E
:100CD0002281622F6F7770E0221F2227221F9381CB
:100CE000892F880F822B282F30E0991F9927991F71
:100CF00011969C93119721153105A9F541155105C0
:100D00006105710511F482E037C082E89FEF139608
:100D10009C938E9312979A01AB0167E0220F331FC9
:100D2000441F551F6A95D1F783E08C930DC0220FA5
:100D3000331F441F551F12968D919C911397019755
:100D400013969C938E931297203080E0380780E0B2
:100D5000480780E4580758F314962D933D934D931C
:100D60005C93179708952F3F310579F4411551058C
:100D70006105710519F484E08C93089564FF03C044
:100D800081E08C9312C01C9210C02F5730401396F4
:100D90003C932E93129783E08C9387E0440F551F6A
:100DA000661F771F8A95D1F7706414964D935D93F3
:100DB0006D937C93179708951F93DC01FB019C9121
:100DC000923008F447C08081823008F443C09430E8
:100DD00051F411961C91843099F58181682F70E04F
:100DE000611B71093FC0843021F0923031F48230B0
:100DF000B9F18181882389F12DC011961C91119739
:100E00008230F1F081811817D9F412962D913C911E
:100E10001397828193818217930794F028173907DB
:100E2000BCF014968D919D910D90BC91A02D2481C4
:100E3000358146815781281739074A075B0718F41F
:100E4000112341F00AC082179307A407B50740F4A5
:100E5000112319F061E070E005C06FEF7FEF02C071
:100E600060E070E0CB011F910895DF93CF93CDB781
:100E7000DEB76C970FB6F894DEBF0FBECDBF789487
:100E800082E089831A82CE0101960E941E0B80E9BE
:100E900099E00E94670B8DE0FE013396DF01982FE9
:100EA0001D929A95E9F787E08B8382E08C838CE32F
:100EB00090E09E838D83CE0103960E94820F8BEE7D
:100EC00099E00E94481080910802282F30E080911C
:100ED0002C02482F50E08DE0FE017096DF01982F24
:100EE0001D929A95E9F787E0888B83E0898B3B8B8D
:100EF0002A8B82E08C8B5E8B4D8B82E08F8B8CE318
:100F000090E09C8F8B8FCE0140960E9464100E94CF
:100F1000F311EAE3F0E08FEF808380910E028823E3
:100F200009F079C0E4E4F0E090818091090298171B
:100F300051F40E940112ABE3B0E0EBE3F0E08081FA
:100F400080618C9368C0E4E4F0E0908180910A02B3
:100F5000981741F4ABE3B0E0EBE3F0E080818F7EE3
:100F60008C9359C0E4E4F0E0908180912D029817B1
:100F700041F4ABE3B0E0EBE3F0E0808184608C937C
:100F80004AC0E4E4F0E0908180912A02981741F48D
:100F9000ABE3B0E0EBE3F0E080818B7F8C933BC070
:100FA000E4E4F0E0908180910B02981741F4ABE308
:100FB000B0E0EBE3F0E0808180628C932CC0E4E44D
:100FC000F0E0908180910C02981741F4ABE3B0E01F
:100FD000EBE3F0E080818F7D8C931DC0E4E4F0E0D2
:100FE000908180912B02981741F4ABE3B0E0EBE3E2
:100FF000F0E0808188608C930EC0E4E4F0E09081A2
:1010000080912E02981739F4ABE3B0E0EBE3F0E007
:101010008081877F8C9380910E02813009F07DCF93
:10102000E4E4F0E0908180910902981741F4ABE389
:10103000B0E0EBE3F0E0808180618C936ECFE4E47C
:10104000F0E0908180910A02981741F4ABE3B0E0A0
:10105000EBE3F0E080818F7E8C935FCFE4E4F0E0FF
:10106000908180912D02981741F4ABE3B0E0EBE35F
:10107000F0E0808181608C9350CFE4E4F0E09081D7
:1010800080912A02981741F4ABE3B0E0EBE3F0E083
:1010900080818E7F8C9341CFE4E4F0E09081809159
:1010A0000B02981741F4ABE3B0E0EBE3F0E0808192
:1010B00080628C9332CFE4E4F0E0908180910C0266
:1010C000981741F4ABE3B0E0EBE3F0E080818F7D73
:1010D0008C9323CFE4E4F0E0908180912B02981769
:1010E00041F4ABE3B0E0EBE3F0E0808182608C930D
:1010F00014CFE4E4F0E0908180912E02981709F07B
:101100000CCFABE3B0E0EBE3F0E080818D7F8C931C
:1011100004CFAF92BF92CF92DF92EF92FF920F93E4
:101120001F93DF93CF93CDB7DEB72E970FB6F8940A
:10113000DEBF0FBECDBFABE3B0E0EBE3F0E08081FC
:1011400081608C9380E090E0AAEFB3E48B879C876A
:10115000AD87BE876B857C858D859E8520E030E0E0
:101160004AE755E40E943D02DC01CB018F8398875A
:10117000A987BA876F81788589859A8520E030E0D4
:1011800040E85FE30E94430488232CF481E090E070
:101190009E838D833FC06F81788589859A8520E005
:1011A0003FEF4FE757E40E94E30318164CF56B85B9
:1011B0007C858D859E8520E030E040E251E40E94F0
:1011C0003D02DC01CB01BC01CD010E946700DC01C6
:1011D000CB019E838D830FC080E991E09C838B833C
:1011E0008B819C810197F1F79C838B838D819E81FC
:1011F00001979E838D838D819E81009769F714C02E
:101200006F81788589859A850E946700DC01CB0112
:101210009E838D838D819E819A83898389819A8122
:101220000197F1F79A838983ABE3B0E0EBE3F0E059
:1012300080818E7F8C9350C0ABE3B0E0EBE3F0E0B5
:10124000808182608C9310920F02809110029091A5
:101250001102CC01A0E0B0E0BC01CD010E94C704A6
:101260005B016C018091120290911302CC01A0E00D
:10127000B0E0BC01CD010E94C7047B018C018091CC
:10128000100290911102CC01A0E0B0E0BC01CD01B0
:101290000E94C7049B01AC01C801B7010E94100263
:1012A000DC01CB019C01AD01C601B5010E943703F1
:1012B000DC01CB01BC01CD0120E030E048EC52E480
:1012C0000E943D02DC01CB0180931602909317022D
:1012D000A0931802B0931902809116029091170200
:1012E000A0911802B0911902BC01CD0120E030E0BC
:1012F00048E452E40E94430488230CF49DCF2E96C8
:101300000FB6F894DEBF0FBECDBFCF91DF911F9116
:101310000F91FF90EF90DF90CF90BF90AF90089526
:10132000DF93CF9300D0CDB7DEB780910F028F5FF0
:1013300080930F0280910F02282F30E03A83298397
:1013400089819A8182309105E1F029813A812330A7
:10135000310534F489819A818130910561F036C07C
:1013600029813A8123303105C1F089819A81843005
:101370009105F9F02BC00E94A30B80E00E94790B2D
:1013800025C00E94980B909311028093100281E077
:101390000E94790B0E94A30B19C00E94980B909396
:1013A00013028093120280E00E94790B0E94A30B2B
:1013B0000DC00E94980B909315028093140281E057
:1013C0000E94790B0E94A30B10920F020F900F90B6
:1013D000CF91DF910895DF93CF93CDB7DEB78091A2
:1013E0000E028F5F80930E0280910E02823011F404
:1013F00010920E02CF91DF9108951F920F920FB6B7
:101400000F9200905B000F9211242F933F934F9304
:101410005F936F937F938F939F93AF93BF93EF935C
:10142000FF93DF93CF93CDB7DEB780911A029091EF
:101430001B02009729F0E0911A02F0911B02099516
:10144000CF91DF91FF91EF91BF91AF919F918F91DC
:101450007F916F915F914F913F912F910F900092EB
:101460005B000F900FBE0F901F9018951F920F9268
:101470000FB60F9200905B000F9211242F933F93B1
:101480004F935F936F937F938F939F93AF93BF938C
:10149000EF93FF93DF93CF93CDB7DEB780911C021C
:1014A00090911D02009729F0E0911C02F0911D021D
:1014B0000995CF91DF91FF91EF91BF91AF919F91EE
:1014C0008F917F916F915F914F913F912F910F90ED
:1014D00000925B000F900FBE0F901F901895DF9346
:1014E000CF9300D0CDB7DEB79A838983A2E2B0E074
:1014F000E2E2F0E080818F7E8C93EAE7F0E080EE1C
:101500008083AEE4B0E0EEE4F0E08081982F987F35
:10151000E981FA818081892B8C93AEE4B0E0EEE41E
:10152000F0E08081282F2F7BE981FA818181882F4B
:1015300090E0002496958795079496958795079453
:10154000982F802D822B8C93ECE4F0E01182108296
:10155000E6E4F0E011821082A7E5B0E0E7E5F0E014
:10156000808180628C930F900F90CF91DF910895CE
:10157000DF93CF9300D0CDB7DEB79A83898389817B
:101580009A8190931B0280931A020F900F90CF9133
:10159000DF910895DF93CF930F92CDB7DEB78983A4
:1015A000AEE4B0E0EEE4F0E08081282F2F7B89816B
:1015B000882F90E0002496958795079496958795B7
:1015C0000794982F802D822B8C930F90CF91DF91D1
:1015D0000895DF93CF93CDB7DEB7E6E4F0E08081E6
:1015E0009181CF91DF910895DF93CF93CDB7DEB78F
:1015F000ECE4F0E011821082CF91DF910895DF9347
:10160000CF93CDB7DEB7EFE4F0E01082EEE4F0E088
:101610001082EAE7F0E01082ECE4F0E01182108240
:10162000E6E4F0E011821082ADE7B0E0EDE7F0E033
:1016300080818F7D8C93CF91DF910895DF93CF933D
:1016400000D0CDB7DEB79A838983A2E2B0E0E2E2B0
:10165000F0E080818F778C93ECE8F0E080EE80837F
:10166000AAE8B0E0EAE8F0E08081982F987FE9816D
:10167000FA818081892B8C93AAE8B0E0EAE8F0E057
:101680008081282F2F7BE981FA818181882F90E04A
:101690000024969587950794969587950794982F9B
:1016A000802D822B8C93E8E8F0E011821082E0E834
:1016B000F0E011821082ADE7B0E0EDE7F0E080816C
:1016C00080628C930F900F90CF91DF910895DF93FC
:1016D000CF9300D0CDB7DEB79A83898389819A8171
:1016E00090931D0280931C020F900F90CF91DF9179
:1016F0000895DF93CF930F92CDB7DEB78983AAE821
:10170000B0E0EAE8F0E08081282F2F7B8981882FE4
:1017100090E0002496958795079496958795079471
:10172000982F802D822B8C930F90CF91DF9108956D
:10173000DF93CF93CDB7DEB7E0E8F0E08081918111
:10174000CF91DF910895DF93CF93CDB7DEB7E8E86F
:10175000F0E011821082CF91DF910895DF93CF9353
:10176000CDB7DEB7EBE8F0E01082EAE8F0E01082F7
:10177000ECE8F0E01082E8E8F0E011821082E0E8A6
:10178000F0E011821082ADE7B0E0EDE7F0E080819B
:101790008F7D8C93CF91DF9108951F920F920FB69A
:1017A0000F9200905B000F9211242F933F934F9361
:1017B0005F936F937F938F939F93AF93BF93EF93B9
:1017C000FF93DF93CF93CDB7DEB780911E02909148
:1017D0001F02009729F0E0911E02F0911F02099567
:1017E000CF91DF91FF91EF91BF91AF919F918F9139
:1017F0007F916F915F914F913F912F910F90009248
:101800005B000F900FBE0F901F9018951F920F92C4
:101810000FB60F9200905B000F9211242F933F930D
:101820004F935F936F937F938F939F93AF93BF93E8
:10183000EF93FF93DF93CF93CDB7DEB780911E0276
:1018400090911F02009729F0E0911E02F0911F0273
:101850000995CF91DF91FF91EF91BF91AF919F914A
:101860008F917F916F915F914F913F912F910F9049
:1018700000925B000F900FBE0F901F9018951F9263
:101880000F920FB60F9200905B000F9211242F93CE
:101890003F934F935F936F937F938F939F93AF93F8
:1018A000BF93EF93FF93DF93CF93CDB7DEB78091D4
:1018B000200290912102009729F0E0912002F091FE
:1018C00021020995CF91DF91FF91EF91BF91AF91E7
:1018D0009F918F917F916F915F914F913F912F9148
:1018E0000F9000925B000F900FBE0F901F90189505
:1018F0001F920F920FB60F9200905B000F9211246F
:101900002F933F934F935F936F937F938F939F9307
:10191000AF93BF93EF93FF93DF93CF93CDB7DEB732
:101920008091200290912102009729F0E0912002FD
:10193000F09121020995CF91DF91FF91EF91BF9135
:10194000AF919F918F917F916F915F914F913F9157
:101950002F910F9000925B000F900FBE0F901F9081
:1019600018951F920F920FB60F9200905B000F9286
:1019700011242F933F934F935F936F937F938F9394
:101980009F93AF93BF93EF93FF93DF93CF93CDB725
:10199000DEB78091220290912302009729F0E09116
:1019A0002202F09123020995CF91DF91FF91EF91EF
:1019B000BF91AF919F918F917F916F915F914F9167
:1019C0003F912F910F9000925B000F900FBE0F90F0
:1019D0001F9018951F920F920FB60F9200905B0008
:1019E0000F9211242F933F934F935F936F937F93A5
:1019F0008F939F93AF93BF93EF93FF93DF93CF9317
:101A0000CDB7DEB78091220290912302009729F092
:101A1000E0912202F09123020995CF91DF91FF918D
:101A2000EF91BF91AF919F918F917F916F915F9156
:101A30004F913F912F910F9000925B000F900FBE3E
:101A40000F901F9018951F920F920FB60F92009053
:101A50005B000F9211242F933F934F935F936F93EB
:101A60007F938F939F93AF93BF93EF93FF93DF93F6
:101A7000CF93CDB7DEB780912202909123020097D9
:101A800029F0E0912202F09123020995CF91DF9194
:101A9000FF91EF91BF91AF919F918F917F916F9146
:101AA0005F914F913F912F910F9000925B000F90AB
:101AB0000FBE0F901F9018951F920F920FB60F92A6
:101AC00000905B000F9211242F933F934F935F93ED
:101AD0006F937F938F939F93AF93BF93EF93FF93F6
:101AE000DF93CF93CDB7DEB780912202909123028E
:101AF000009729F0E0912202F09123020995CF91FD
:101B0000DF91FF91EF91BF91AF919F918F917F9165
:101B10006F915F914F913F912F910F9000925B00D9
:101B20000F900FBE0F901F9018951F920F920FB637
:101B30000F9200905B000F9211242F933F934F93CD
:101B40005F936F937F938F939F93AF93BF93EF9325
:101B5000FF93DF93CF93CDB7DEB7809124029091AE
:101B60002502009729F0E0912402F09125020995C1
:101B7000CF91DF91FF91EF91BF91AF919F918F91A5
:101B80007F916F915F914F913F912F910F900092B4
:101B90005B000F900FBE0F901F9018951F920F9231
:101BA0000FB60F9200905B000F9211242F933F937A
:101BB0004F935F936F937F938F939F93AF93BF9355
:101BC000EF93FF93DF93CF93CDB7DEB780912402DD
:101BD00090912502009729F0E0912402F0912502CE
:101BE0000995CF91DF91FF91EF91BF91AF919F91B7
:101BF0008F917F916F915F914F913F912F910F90B6
:101C000000925B000F900FBE0F901F9018951F92CF
:101C10000F920FB60F9200905B000F9211242F933A
:101C20003F934F935F936F937F938F939F93AF9364
:101C3000BF93EF93FF93DF93CF93CDB7DEB7809140
:101C4000240290912502009729F0E0912402F0915E
:101C500025020995CF91DF91FF91EF91BF91AF914F
:101C60009F918F917F916F915F914F913F912F91B4
:101C70000F9000925B000F900FBE0F901F90189571
:101C80001F920F920FB60F9200905B000F921124DB
:101C90002F933F934F935F936F937F938F939F9374
:101CA000AF93BF93EF93FF93DF93CF93CDB7DEB79F
:101CB0008091240290912502009729F0E09124025E
:101CC000F09125020995CF91DF91FF91EF91BF919E
:101CD000AF919F918F917F916F915F914F913F91C4
:101CE0002F910F9000925B000F900FBE0F901F90EE
:101CF0001895DF93CF9300D000D0CDB7DEB79A838D
:101D00008983E981FA81808180932602E2E5F0E00F
:101D10001082A3E5B0E0E981FA818181882F90E00B
:101D20009695982F882797958795282FE981FA818E
:101D30008181882F90E00024969587950794969549
:101D400087950794982F802D8074282BE981FA813C
:101D50008181882F90E0880F991F880F991F8870C4
:101D6000282BE981FA818481882F90E082959295D1
:101D7000907F9827807F9827922F982BE981FA816E
:101D80008081892B8C93E981FA818181882341F4B8
:101D9000A7E5B0E0E7E5F0E0808181608C9352C078
:101DA000E981FA818181823079F4A7E5B0E0E7E545
:101DB000F0E0808182608C93A1E5B0E0E981FA8156
:101DC000828193818C933EC0E981FA8181811C825A
:101DD000823011F481E08C83E981FA8184811B8255
:101DE000813011F491E09B838C819B81892388232E
:101DF000B1F0A7E5B0E0E7E5F0E0808182608C9388
:101E0000A7E3B0E0E7E3F0E0808180618C93A1E597
:101E1000B0E0E981FA81828193818C9313C0E981DA
:101E2000FA818181833071F4A7E3B0E0E7E3F0E069
:101E3000808180618C93A1E5B0E0E981FA818281A3
:101E400093818C930F900F900F900F90CF91DF9113
:101E50000895DF93CF93CDB7DEB7E2E5F0E01082CF
:101E6000CF91DF910895DF93CF93CDB7DEB7A3E590
:101E7000B0E0E3E5F0E08081887F8C93CF91DF9143
:101E80000895DF93CF93CDB7DEB7A3E5B0E0E3E5E8
:101E9000F0E08081887F8C93A3E5B0E0E3E5F0E09B
:101EA000908180912602892B8C93CF91DF910895A8
:101EB000DF93CF930F92CDB7DEB78983E1E5F0E0F2
:101EC000898180830F90CF91DF910895DF93CF9325
:101ED00000D0CDB7DEB79A83898389819A819093A8
:101EE0001F0280931E020F900F90CF91DF910895F3
:101EF000DF93CF93CDB7DEB7E3E5F0E01082CF916B
:101F0000DF910895DF93CF9300D0CDB7DEB79A83EA
:101F10008983E981FA81808180932802E4E4F0E0FA
:101F20001082A5E4B0E0E981FA818181882F90E0F8
:101F30009695982F882797958795282FE981FA817C
:101F40008181882F90E00024969587950794969537
:101F500087950794982F802D8074282BE981FA812A
:101F60008181882F90E0880F991F880F991F8870B2
:101F7000282BE981FA818481882F90E082959295BF
:101F8000907F9827807F9827922F982BE981FA815C
:101F90008081892B8C93E981FA818181882341F4A6
:101FA000A7E5B0E0E7E5F0E0808180648C932EC087
:101FB000E981FA8181818230B1F4A7E5B0E0E7E5FB
:101FC000F0E0808180688C93A7E3B0E0E7E3F0E085
:101FD000808180688C93A3E4B0E0E981FA818281FA
:101FE00093818C9313C0E981FA818181833071F4EC
:101FF000A7E3B0E0E7E3F0E0808180688C93A3E49E
:10200000B0E0E981FA81828193818C930F900F90E7
:10201000CF91DF910895DF93CF93CDB7DEB7E4E49E
:10202000F0E01082CF91DF910895DF93CF93CDB789
:10203000DEB7A5E4B0E0E5E4F0E08081887F8C9332
:10204000CF91DF910895DF93CF93CDB7DEB7A5E4AD
:10205000B0E0E5E4F0E08081887F8C93A5E4B0E017
:10206000E5E4F0E0908180912802892B8C93CF9158
:10207000DF910895DF93CF930F92CDB7DEB78983B9
:10208000E3E4F0E0898180830F90CF91DF910895A0
:10209000DF93CF9300D0CDB7DEB79A838983898150
:1020A0009A8190932102809320020F900F90CF91FC
:1020B000DF910895DF93CF93CDB7DEB7E5E4F0E08D
:1020C0001082CF91DF910895DF93CF9300D0CDB7E9
:1020D000DEB79A838983E981FA8180818093270220
:1020E000E981FA8181818823B1F4ECE4F0E0118286
:1020F0001082A7E5B0E0E7E5F0E0808184608C9392
:10210000EAE7F0E080EE8083AEE4B0E0E981FA81B6
:1021100080818C9358C1E981FA818181823009F0F4
:1021200063C0A7E5B0E0E7E5F0E0808189618C93CA
:10213000ECE4F0E011821082AAE4B0E0E981FA81D7
:102140008281938111969C938E93A8E4B0E0E981FB
:10215000FA818581968111969C938E93A8E7B0E0D1
:10216000E981FA818085918511969C938E93A6E4EE
:10217000B0E0E981FA818385948511969C938E93D2
:10218000AFE4B0E0E981FA818481882F90E00024F7
:10219000969587950794969587950794982F802D07
:1021A000282FE981FA818781882F90E08295929586
:1021B000907F9827807F9827282BE981FA81828554
:1021C000882F90E0880F991F880F991F822B8C937E
:1021D000AEE4B0E0E981FA81808188608C93EAE71F
:1021E000F0E080EE8083EFC0E981FA818181813067
:1021F00009F06FC0A7E3B0E0E7E3F0E08081806220
:102200008C93A7E3B0E0E7E3F0E0808180648C93F7
:10221000A7E3B0E0E7E3F0E0808180688C93A7E576
:10222000B0E0E7E5F0E0808189618C93ECE4F0E0D8
:1022300011821082AAE4B0E0E981FA81828193815F
:1022400011969C938E93A8E4B0E0E981FA81858190
:10225000968111969C938E93A8E7B0E0E981FA816C
:102260008085918511969C938E93AFE4B0E0E981CF
:10227000FA818481882F90E00024969587950794B1
:10228000969587950794982F802D282FE981FA81BC
:102290008781882F90E082959295907F9827807F04
:1022A0009827282BE981FA818285882F90E0880F72
:1022B000991F880F991F822B8C93AEE4B0E0E981BF
:1022C000FA81808188608C93EAE7F0E080EE808379
:1022D0007AC0E981FA818181833009F074C0A7E373
:1022E000B0E0E7E3F0E0808180628C93A7E3B0E0A8
:1022F000E7E3F0E0808180648C93A7E3B0E0E7E35C
:10230000F0E0808180688C93ECE4F0E01182108230
:10231000A7E5B0E0E7E5F0E0808189618C93AAE46D
:10232000B0E0E981FA818281938111969C938E932A
:10233000A8E4B0E0E981FA818581968111969C93A9
:102340008E93A8E7B0E0E981FA81808591851196A6
:102350009C938E93A6E4B0E0E981FA81838594850D
:1023600011969C938E93AFE4B0E0E981FA81848169
:10237000882F90E0002496958795079496958795E9
:102380000794982F802D282FE981FA818781882F43
:1023900090E082959295907F9827807F9827282BB0
:1023A000E981FA818285882F90E0880F991F880F34
:1023B000991F822B82608C93AEE4B0E0E981FA81B0
:1023C000808188618C930F900F90CF91DF91089559
:1023D000DF93CF93CDB7DEB7ECE4F0E0118210824B
:1023E000CF91DF910895DF93CF93CDB7DEB7AEE401
:1023F000B0E0EEE4F0E08081887F8C93CF91DF91B4
:102400000895DF93CF93CDB7DEB7AEE4B0E0EEE44E
:10241000F0E08081887F8C93AEE4B0E0EEE4F0E001
:10242000908180912702892B8C93CF91DF91089521
:10243000DF93CF9300D000D0CDB7DEB79A838983E6
:102440007C836B83EAE4F0E089819A8191838083C5
:10245000E8E4F0E08B819C81918380830F900F9062
:102460000F900F90CF91DF910895DF93CF9300D01D
:10247000CDB7DEB79A83898389819A8190932302AD
:10248000809322020F900F90CF91DF910895DF93F8
:10249000CF93CDB7DEB7EFE4F0E01082EEE4F0E0EA
:1024A0001082EAE7F0E01082CF91DF910895DF9388
:1024B000CF9300D0CDB7DEB79A838983E981FA81C3
:1024C000808180932902E981FA8181818823B1F496
:1024D000E8E8F0E011821082A7E5B0E0E7E5F0E07F
:1024E000808184608C93ECE8F0E080EE8083AAE841
:1024F000B0E0E981FA8180818C9364C1E981FA813D
:102500008181823009F06FC0A2E2B0E0E2E2F0E047
:10251000808188608C93A2E2B0E0E2E2F0E080810A
:1025200080618C93A2E2B0E0E2E2F0E08081806220
:102530008C93A7E5B0E0E7E5F0E080818A618C93B9
:10254000E8E8F0E011821082A6E8B0E0E981FA81C3
:102550008281938111969C938E93A4E8B0E0E981E7
:10256000FA818581968111969C938E93A2E8B0E0C2
:10257000E981FA818085918511969C938E93ABE8D1
:10258000B0E0E981FA818481882F90E0002496955B
:1025900087950794969587950794982F802D282FD7
:1025A000E981FA818781882F90E082959295907FCA
:1025B0009827807F9827282BE981FA818285882FA8
:1025C00090E0880F991F880F991F822B8C93AAE89F
:1025D000B0E0E981FA81808188618C93ECE8F0E0D9
:1025E00080EE8083EFC0E981FA818181813009F03A
:1025F0006FC0A2E2B0E0E2E2F0E0808188608C93FC
:10260000A2E2B0E0E2E2F0E0808180618C93A2E29D
:10261000B0E0E2E2F0E0808180628C93A7E5B0E078
:10262000E7E5F0E080818A618C93E8E8F0E01182D0
:102630001082A6E8B0E0E981FA8182819381119647
:102640009C938E93A4E8B0E0E981FA81858196811C
:1026500011969C938E93A2E8B0E0E981FA8180857F
:10266000918511969C938E93ABE8B0E0E981FA8155
:102670008481882F90E000249695879507949695FD
:1026800087950794982F802D282FE981FA818781DB
:10269000882F90E082959295907F9827807F982749
:1026A000282BE981FA818285882F90E0880F991F75
:1026B000880F991F822B8C93AAE8B0E0E981FA81F8
:1026C000808188608C93ECE8F0E080EE80837AC0B3
:1026D000E981FA818181833009F074C0A2E2B0E01F
:1026E000E2E2F0E0808188608C93A2E2B0E0E2E276
:1026F000F0E0808180618C93A2E2B0E0E2E2F0E061
:10270000808180628C93A7E5B0E0E7E5F0E080810E
:102710008A618C93E8E8F0E011821082A6E8B0E0CC
:10272000E981FA818281938111969C938E93A4E82A
:10273000B0E0E981FA818581968111969C938E9310
:10274000A2E8B0E0E981FA818085918511969C9399
:102750008E93A0E8B0E0E981FA8183859485119693
:102760009C938E93ABE8B0E0E981FA818481882F55
:1027700090E0002496958795079496958795079401
:10278000982F802D282FE981FA818781882F90E06A
:1027900082959295907F9827807F9827282BE981B2
:1027A000FA818285882F90E0880F991F880F991FE2
:1027B000822B82608C93AAE8B0E0E981FA81808163
:1027C00088618C930F900F90CF91DF910895DF93E4
:1027D000CF93CDB7DEB7E8E8F0E011821082CF9159
:1027E000DF910895DF93CF93CDB7DEB7AAE8B0E0CD
:1027F000EAE8F0E08081887F8C93CF91DF910895A3
:10280000DF93CF93CDB7DEB7AAE8B0E0EAE8F0E017
:102810008081887F8C93AAE8B0E0EAE8F0E09081BC
:1028200080912902892B8C93CF91DF910895DF93BA
:10283000CF9300D000D0CDB7DEB79A8389837C8355
:102840006B83E6E8F0E089819A8191838083E4E8F4
:10285000F0E08B819C81918380830F900F900F908B
:102860000F90CF91DF910895DF93CF9300D0CDB734
:10287000DEB79A83898389819A8190932502809318
:1028800024020F900F90CF91DF910895DF93CF93A3
:10289000CDB7DEB7EFE4F0E01082EEE4F0E01082B6
:1028A000EAE7F0E01082CF91DF9108950F931F9334
:1028B000DF93CF9300D0CDB7DEB79A838983EBE265
:1028C000F0E082E08083EAE2F0E088E18083E98161
:1028D000FA818281873039F4AAE2B0E0EAE2F0E0DE
:1028E000808187608C93A5E9B0E0E981FA818081DD
:1028F000882F90E082959295907F9827807F9827E7
:10290000282FE981FA818181882F90E0880F991F13
:10291000880F991F880F991F282BE981FA818281DE
:10292000882F90E083709070880F991F822B8C9372
:1029300009E210E0E981FA8183819481A581B68161
:10294000880F991FAA1FBB1F880F991FAA1FBB1FA3
:10295000880F991FAA1FBB1F9C01AD0180E094E264
:10296000A4EFB0E0BC01CD010E944616DA01C90116
:102970008150F801808300E910E0E981FA818381C8
:102980009481A581B681880F991FAA1FBB1F880F4C
:10299000991FAA1FBB1F880F991FAA1FBB1F9C014D
:1029A000AD0180E094E2A4EFB0E0BC01CD010E9453
:1029B0004616DA01C9010197A109B109892F9A2F99
:1029C000AB2FBB27F80180830F900F90CF91DF9141
:1029D0001F910F910895DF93CF930F92CDB7DEB77C
:1029E0008983EBE2F0E08081882F90E08072907024
:1029F0000097B9F3ECE2F0E0898180830F90CF91EA
:102A0000DF910895DF93CF93CDB7DEB7EBE2F0E02F
:102A100080818823DCF7ECE2F0E08081CF91DF91C8
:102A20000895DF93CF9300D0CDB7DEB79A83898323
:102A30000AC0E981FA8180810E94EB1489819A8120
:102A400001969A838983E981FA818081882389F7B5
:102A50000F900F90CF91DF910895DF93CF9300D027
:102A6000CDB7DEB79A83898382E095E19A83898323
:102A700009C089819A8101969A83898382E095E1D0
:102A80009A838983E981FA818081833291F71A825E
:102A900019820F900F90CF91DF9108950F931F939C
:102AA000DF93CF9300D0CDB7DEB79A838983EBE96C
:102AB000F0E082E08083EAE9F0E088E18083E98168
:102AC000FA818281873039F4AAE9B0E0EAE9F0E0DE
:102AD000808187608C93A5E9B0E0E981FA818081EB
:102AE000882F90E082959295907F9827807F9827F5
:102AF000282FE981FA818181882F90E0880F991F22
:102B0000880F991F880F991F282BE981FA818281EC
:102B1000882F90E083709070880F991F822B8C9380
:102B200009E910E0E981FA8183819481A581B68168
:102B3000880F991FAA1FBB1F880F991FAA1FBB1FB1
:102B4000880F991FAA1FBB1F9C01AD0180E094E272
:102B5000A4EFB0E0BC01CD010E944616DA01C90124
:102B60008150F801808308E910E0E981FA818381CE
:102B70009481A581B681880F991FAA1FBB1F880F5A
:102B8000991FAA1FBB1F880F991FAA1FBB1F9C015B
:102B9000AD0180E094E2A4EFB0E0BC01CD010E9461
:102BA0004616DA01C9010197A109B109892F9A2FA7
:102BB000AB2FBB27F80180830F900F90CF91DF914F
:102BC0001F910F910895DF93CF930F92CDB7DEB78A
:102BD0008983EBE9F0E08081882F90E0807290702B
:102BE0000097B9F3ECE9F0E0898180830F90CF91F1
:102BF000DF910895DF93CF93CDB7DEB7EBE9F0E037
:102C000080818823DCF7ECE9F0E08081CF91DF91CF
:102C10000895DF93CF9300D0CDB7DEB79A83898331
:102C20000AC0E981FA8180810E94E31589819A8135
:102C300001969A838983E981FA818081882389F7C3
:102C40000F900F90CF91DF910895DF93CF9300D035
:102C5000CDB7DEB79A8389838AEF95E19A8389831A
:102C600009C089819A8101969A8389838AEF95E1C7
:102C70009A838983E981FA818081833291F71A826C
:102C800019820F900F90CF91DF910895A1E21A2E33
:102C9000AA1BBB1BFD010DC0AA1FBB1FEE1FFF1F00
:102CA000A217B307E407F50720F0A21BB30BE40B50
:102CB000F50B661F771F881F991F1A9469F7609597
:102CC0007095809590959B01AC01BD01CF01089551
:102CD0002F923F924F925F926F927F928F929F922C
:102CE000AF92BF92CF92DF92EF92FF920F931F931A
:102CF000CF93DF93CDB7DEB7CA1BDB0B0FB6F894CB
:102D0000DEBF0FBECDBF09942A88398848885F840A
:102D10006E847D848C849B84AA84B984C884DF807B
:102D2000EE80FD800C811B81AA81B981CE0FD11D5F
:102D30000FB6F894DEBF0FBECDBFED010895F89435
:022D4000FFCFC3
:102D42000000000000000000000102020303030370
:102D52000404040404040404050505050505050529
:102D62000505050505050505060606060606060609
:102D720006060606060606060606060606060606F1
:102D820006060606060606060707070707070707D9
:102D920007070707070707070707070707070707C1
:102DA20007070707070707070707070707070707B1
:102DB20007070707070707070707070707070707A1
:102DC2000707070707070707080808080808080889
:102DD2000808080808080808080808080808080871
:102DE2000808080808080808080808080808080861
:102DF2000808080808080808080808080808080851
:102E02000808080808080808080808080808080840
:102E12000808080808080808080808080808080830
:102E22000808080808080808080808080808080820
:102E32000808080808080808080808080808080810
:0E2E42000808080808080808010204202200F9
:00000001FF
