:100000000C942A000C943F000C943F000C943F0089
:100010000C943F000C943F000C943F000C943F0064
:100020000C943F000C943F000C943F000C943F0054
:100030000C943F000C943F000C943F000C943F0044
:100040000C943F000C943F000C943F000C943F0034
:100050000C943F0011241FBECFE5D4E0DEBFCDBF1E
:1000600010E0A0E6B0E0EEEEF2E002C005900D92E6
:10007000A637B107D9F70E94FB000C9475010C94C8
:10008000000097E895BD84BD089514BC089584B51B
:100090000895AE982AEF30E0F9013197F1F7AF9A61
:1000A000F9013197F1F798B3907F98BB982F92950B
:1000B0009F7098BBAF98F9013197F1F7AE98AF9A5E
:1000C000F9013197F1F798B3907F98BB98B38F708F
:1000D000982B98BBAF98C9010197F1F70895A69A9C
:1000E000A79A87B38F6087BB82E00E94490088E2AD
:1000F0000E9449008AEF90E00197F1F781E00E94A9
:1001000049008CE00E944900089581E00E94490066
:100110000895AE9A2AEF30E0F9013197F1F7AF9ADE
:10012000F9013197F1F798B3907F98BB982F92958A
:100130009F7098BBAF98F9013197F1F7AE9AAF9ADB
:10014000F9013197F1F798B3907F98BB8F7088BB16
:10015000AF98C9010197F1F70895CF93DF93EC01B0
:1001600002C00E94890089918823D9F7DF91CF913D
:100170000895813041F0813058F0823031F0833081
:1001800031F060E005C0605C03C0605F01C0605B8F
:10019000862F80680E94490008950F931F938A015B
:1001A0000E94B900C8010E94AD001F910F910895EF
:1001B0000F931F93CF93DF938B01883090F4880FB8
:1001C000880F880F805C0E944900C0E0D0E0F801F1
:1001D000EC0FFD1F80810E9489002196C830D10557
:1001E000B1F7DF91CF911F910F9108954AE050E050
:1001F0000E9430010895EF92FF921F93DF93CF93F7
:10020000CDB7DEB72A970FB6F894DEBF0FBECDBFCD
:1002100080E00E944100D0980E946F000E948500FB
:1002200080E060E040E650E00E94CD007E0108944E
:10023000E11CF11CC89BFECF0E944700182F81E0F3
:1002400060E00E94B900812F90E0B7010E94F600A3
:10025000C7010E94AD008EE690E00E94AD00EACF9B
:10026000FB019F01E8944230C4F04532B4F44A30B7
:1002700029F497FB1EF4909581959F4F642F772763
:100280000E946101805D8A330CF0895D8193CB010E
:100290000097A1F716F45DE251931082C9010C9406
:1002A0005101DC01FC01672F71917723E1F732974F
:1002B00004C07C916D9370836291AE17BF07C8F341
:1002C0000895AA1BBB1B51E107C0AA1FBB1FA6179D
:1002D000B70710F0A61BB70B881F991F5A95A9F7EF
:0E02E00080959095BC01CD010895F894FFCF54
:1002EE0054686520436F756E7473203A2000204366
:0602FE006F756E747300C1
:00000001FF
